{
  "contractName": "AllocateTokens",
  "abi": [
    {
      "inputs": [],
      "stateMutability": "nonpayable",
      "type": "constructor"
    },
    {
      "anonymous": false,
      "inputs": [
        {
          "indexed": true,
          "internalType": "address",
          "name": "generator",
          "type": "address"
        },
        {
          "indexed": false,
          "internalType": "string",
          "name": "cid",
          "type": "string"
        },
        {
          "indexed": false,
          "internalType": "uint256",
          "name": "tokens",
          "type": "uint256"
        },
        {
          "indexed": false,
          "internalType": "uint256",
          "name": "ethTransferred",
          "type": "uint256"
        }
      ],
      "name": "TokensAllocated",
      "type": "event"
    },
    {
      "inputs": [],
      "name": "owner",
      "outputs": [
        {
          "internalType": "address",
          "name": "",
          "type": "address"
        }
      ],
      "stateMutability": "view",
      "type": "function",
      "constant": true
    },
    {
      "inputs": [
        {
          "internalType": "address",
          "name": "",
          "type": "address"
        }
      ],
      "name": "tokenBalance",
      "outputs": [
        {
          "internalType": "uint256",
          "name": "",
          "type": "uint256"
        }
      ],
      "stateMutability": "view",
      "type": "function",
      "constant": true
    },
    {
      "inputs": [],
      "name": "tokenToEthRate",
      "outputs": [
        {
          "internalType": "uint256",
          "name": "",
          "type": "uint256"
        }
      ],
      "stateMutability": "view",
      "type": "function",
      "constant": true
    },
    {
      "inputs": [
        {
          "internalType": "string",
          "name": "",
          "type": "string"
        }
      ],
      "name": "verifiedReports",
      "outputs": [
        {
          "internalType": "bool",
          "name": "",
          "type": "bool"
        }
      ],
      "stateMutability": "view",
      "type": "function",
      "constant": true
    },
    {
      "inputs": [
        {
          "internalType": "string",
          "name": "cid",
          "type": "string"
        },
        {
          "internalType": "address payable",
          "name": "generator",
          "type": "address"
        },
        {
          "internalType": "uint256",
          "name": "tokens",
          "type": "uint256"
        }
      ],
      "name": "approveAndTransferEther",
      "outputs": [],
      "stateMutability": "payable",
      "type": "function",
      "payable": true
    },
    {
      "inputs": [
        {
          "internalType": "address",
          "name": "generator",
          "type": "address"
        }
      ],
      "name": "getBalance",
      "outputs": [
        {
          "internalType": "uint256",
          "name": "",
          "type": "uint256"
        }
      ],
      "stateMutability": "view",
      "type": "function",
      "constant": true
    }
  ],
  "bytecode": "0x6080604052662386f26fc100006003553480156019575f5ffd5b503360025f6101000a81548173ffffffffffffffffffffffffffffffffffffffff021916908373ffffffffffffffffffffffffffffffffffffffff160217905550610966806100675f395ff3fe608060405260043610610054575f3560e01c806353d99c2a146100585780638da5cb5b14610082578063918c8fc6146100ac578063b3c69bc3146100e8578063eedc966a14610104578063f8b2cb4f14610140575b5f5ffd5b348015610063575f5ffd5b5061006c61017c565b60405161007991906103dd565b60405180910390f35b34801561008d575f5ffd5b50610096610182565b6040516100a39190610435565b60405180910390f35b3480156100b7575f5ffd5b506100d260048036038101906100cd919061059b565b6101a7565b6040516100df91906105fc565b60405180910390f35b61010260048036038101906100fd919061067a565b6101db565b005b34801561010f575f5ffd5b5061012a60048036038101906101259190610710565b61036a565b60405161013791906103dd565b60405180910390f35b34801561014b575f5ffd5b5061016660048036038101906101619190610710565b61037f565b60405161017391906103dd565b60405180910390f35b60035481565b60025f9054906101000a900473ffffffffffffffffffffffffffffffffffffffff1681565b5f818051602081018201805184825260208301602085012081835280955050505050505f915054906101000a900460ff1681565b5f600354826101ea9190610768565b9050803373ffffffffffffffffffffffffffffffffffffffff16311015610246576040517f08c379a000000000000000000000000000000000000000000000000000000000815260040161023d90610803565b60405180910390fd5b60015f856040516102579190610873565b90815260200160405180910390205f6101000a81548160ff0219169083151502179055508160015f8573ffffffffffffffffffffffffffffffffffffffff1673ffffffffffffffffffffffffffffffffffffffff1681526020019081526020015f205f8282546102c79190610889565b925050819055508273ffffffffffffffffffffffffffffffffffffffff166108fc8290811502906040515f60405180830381858888f19350505050158015610311573d5f5f3e3d5ffd5b508273ffffffffffffffffffffffffffffffffffffffff167fec24d174bd074bae243aaf8ee60e94bab81e39d1dc389c274c0eda4d63f5dc1185848460405161035c939291906108f4565b60405180910390a250505050565b6001602052805f5260405f205f915090505481565b5f60015f8373ffffffffffffffffffffffffffffffffffffffff1673ffffffffffffffffffffffffffffffffffffffff1681526020019081526020015f20549050919050565b5f819050919050565b6103d7816103c5565b82525050565b5f6020820190506103f05f8301846103ce565b92915050565b5f73ffffffffffffffffffffffffffffffffffffffff82169050919050565b5f61041f826103f6565b9050919050565b61042f81610415565b82525050565b5f6020820190506104485f830184610426565b92915050565b5f604051905090565b5f5ffd5b5f5ffd5b5f5ffd5b5f5ffd5b5f601f19601f8301169050919050565b7f4e487b71000000000000000000000000000000000000000000000000000000005f52604160045260245ffd5b6104ad82610467565b810181811067ffffffffffffffff821117156104cc576104cb610477565b5b80604052505050565b5f6104de61044e565b90506104ea82826104a4565b919050565b5f67ffffffffffffffff82111561050957610508610477565b5b61051282610467565b9050602081019050919050565b828183375f83830152505050565b5f61053f61053a846104ef565b6104d5565b90508281526020810184848401111561055b5761055a610463565b5b61056684828561051f565b509392505050565b5f82601f8301126105825761058161045f565b5b813561059284826020860161052d565b91505092915050565b5f602082840312156105b0576105af610457565b5b5f82013567ffffffffffffffff8111156105cd576105cc61045b565b5b6105d98482850161056e565b91505092915050565b5f8115159050919050565b6105f6816105e2565b82525050565b5f60208201905061060f5f8301846105ed565b92915050565b5f61061f826103f6565b9050919050565b61062f81610615565b8114610639575f5ffd5b50565b5f8135905061064a81610626565b92915050565b610659816103c5565b8114610663575f5ffd5b50565b5f8135905061067481610650565b92915050565b5f5f5f6060848603121561069157610690610457565b5b5f84013567ffffffffffffffff8111156106ae576106ad61045b565b5b6106ba8682870161056e565b93505060206106cb8682870161063c565b92505060406106dc86828701610666565b9150509250925092565b6106ef81610415565b81146106f9575f5ffd5b50565b5f8135905061070a816106e6565b92915050565b5f6020828403121561072557610724610457565b5b5f610732848285016106fc565b91505092915050565b7f4e487b71000000000000000000000000000000000000000000000000000000005f52601160045260245ffd5b5f610772826103c5565b915061077d836103c5565b925082820261078b816103c5565b915082820484148315176107a2576107a161073b565b5b5092915050565b5f82825260208201905092915050565b7f496e73756666696369656e742062616c616e63650000000000000000000000005f82015250565b5f6107ed6014836107a9565b91506107f8826107b9565b602082019050919050565b5f6020820190508181035f83015261081a816107e1565b9050919050565b5f81519050919050565b5f81905092915050565b8281835e5f83830152505050565b5f61084d82610821565b610857818561082b565b9350610867818560208601610835565b80840191505092915050565b5f61087e8284610843565b915081905092915050565b5f610893826103c5565b915061089e836103c5565b92508282019050808211156108b6576108b561073b565b5b92915050565b5f6108c682610821565b6108d081856107a9565b93506108e0818560208601610835565b6108e981610467565b840191505092915050565b5f6060820190508181035f83015261090c81866108bc565b905061091b60208301856103ce565b61092860408301846103ce565b94935050505056fea2646970667358221220aa2a266fc151b1d733285e3f5f0aa15e2049fd21bc49bade5eebbbcfa3c14e7864736f6c634300081c0033",
  "immutableReferences": {},
  "source": "// SPDX-License-Identifier: MIT\r\npragma solidity ^0.8.0;\r\n\r\ncontract AllocateTokens {\r\n    mapping(string => bool) public verifiedReports;\r\n    mapping(address => uint256) public tokenBalance;\r\n    address public owner;\r\n    uint256 public tokenToEthRate = 0.01 ether; // 1 Token = 0.01 ETH\r\n\r\n    event TokensAllocated(address indexed generator, string cid, uint256 tokens, uint256 ethTransferred);\r\n\r\n    constructor() {\r\n        owner = msg.sender;\r\n    }\r\n\r\n    function approveAndTransferEther(\r\n        string memory cid,\r\n        address payable generator,\r\n        uint256 tokens\r\n    ) public payable {\r\n        // Commented out the \"already verified\" check\r\n        // require(!verifiedReports[cid], \"Report already verified\");\r\n\r\n        uint256 ethAmount = tokens * tokenToEthRate;\r\n        require(msg.sender.balance >= ethAmount, \"Insufficient balance\");\r\n\r\n        verifiedReports[cid] = true;\r\n        tokenBalance[generator] += tokens;\r\n\r\n        // Transfer ETH from Validator to Generator\r\n        generator.transfer(ethAmount);\r\n\r\n        emit TokensAllocated(generator, cid, tokens, ethAmount);\r\n    }\r\n\r\n    function getBalance(address generator) public view returns (uint256) {\r\n        return tokenBalance[generator];\r\n    }\r\n}\r\n",
  "sourcePath": "D:\\carbon-credit-ecosystem\\contracts\\AllocateTokens.sol",
  "compiler": {
    "name": "solc",
    "version": "0.8.28+commit.7893614a.Emscripten.clang"
  },
  "schemaVersion": "3.4.16",
  "updatedAt": "2025-02-26T14:38:34.418Z",
  "networkType": "ethereum",
  "devdoc": {
    "kind": "dev",
    "methods": {},
    "version": 1
  },
  "userdoc": {
    "kind": "user",
    "methods": {},
    "version": 1
  }
}