{
  "contractName": "AMM",
  "abi": [
    {
      "inputs": [
        {
          "internalType": "address",
          "name": "_consumer",
          "type": "address"
        },
        {
          "internalType": "address",
          "name": "_mintContract",
          "type": "address"
        }
      ],
      "stateMutability": "payable",
      "type": "constructor",
      "payable": true
    },
    {
      "inputs": [],
      "name": "consumer",
      "outputs": [
        {
          "internalType": "address",
          "name": "",
          "type": "address"
        }
      ],
      "stateMutability": "view",
      "type": "function",
      "constant": true
    },
    {
      "inputs": [
        {
          "internalType": "uint256",
          "name": "",
          "type": "uint256"
        }
      ],
      "name": "listings",
      "outputs": [
        {
          "internalType": "address",
          "name": "seller",
          "type": "address"
        },
        {
          "internalType": "uint256",
          "name": "amount",
          "type": "uint256"
        },
        {
          "internalType": "uint256",
          "name": "pricePerCCT",
          "type": "uint256"
        }
      ],
      "stateMutability": "view",
      "type": "function",
      "constant": true
    },
    {
      "inputs": [],
      "name": "mintContract",
      "outputs": [
        {
          "internalType": "contract IMintContract",
          "name": "",
          "type": "address"
        }
      ],
      "stateMutability": "view",
      "type": "function",
      "constant": true
    },
    {
      "inputs": [
        {
          "internalType": "uint256",
          "name": "_amount",
          "type": "uint256"
        },
        {
          "internalType": "uint256",
          "name": "_price",
          "type": "uint256"
        }
      ],
      "name": "listTokens",
      "outputs": [],
      "stateMutability": "nonpayable",
      "type": "function"
    },
    {
      "inputs": [],
      "name": "fetchListings",
      "outputs": [
        {
          "components": [
            {
              "internalType": "address",
              "name": "seller",
              "type": "address"
            },
            {
              "internalType": "uint256",
              "name": "amount",
              "type": "uint256"
            },
            {
              "internalType": "uint256",
              "name": "pricePerCCT",
              "type": "uint256"
            }
          ],
          "internalType": "struct AMM.Listing[]",
          "name": "",
          "type": "tuple[]"
        }
      ],
      "stateMutability": "view",
      "type": "function",
      "constant": true
    },
    {
      "inputs": [
        {
          "internalType": "uint256",
          "name": "index",
          "type": "uint256"
        },
        {
          "internalType": "uint256",
          "name": "_amount",
          "type": "uint256"
        }
      ],
      "name": "buyTokens",
      "outputs": [],
      "stateMutability": "payable",
      "type": "function",
      "payable": true
    }
  ],
  "bytecode": "0x6080604052604051610c41380380610c4183398181016040528101906100259190610178565b5f73ffffffffffffffffffffffffffffffffffffffff168273ffffffffffffffffffffffffffffffffffffffff1603610093576040517f08c379a000000000000000000000000000000000000000000000000000000000815260040161008a90610210565b60405180910390fd5b8160025f6101000a81548173ffffffffffffffffffffffffffffffffffffffff021916908373ffffffffffffffffffffffffffffffffffffffff1602179055508060015f6101000a81548173ffffffffffffffffffffffffffffffffffffffff021916908373ffffffffffffffffffffffffffffffffffffffff160217905550505061022e565b5f5ffd5b5f73ffffffffffffffffffffffffffffffffffffffff82169050919050565b5f6101478261011e565b9050919050565b6101578161013d565b8114610161575f5ffd5b50565b5f815190506101728161014e565b92915050565b5f5f6040838503121561018e5761018d61011a565b5b5f61019b85828601610164565b92505060206101ac85828601610164565b9150509250929050565b5f82825260208201905092915050565b7f56616c696461746f7220616464726573732063616e6e6f74206265207a65726f5f82015250565b5f6101fa6020836101b6565b9150610205826101c6565b602082019050919050565b5f6020820190508181035f830152610227816101ee565b9050919050565b610a068061023b5f395ff3fe608060405260043610610054575f3560e01c80637975ce2814610058578063a80f99ec14610074578063b4fd72961461009e578063d0b6b6db146100c8578063de74e57b146100f2578063e30e5ae914610130575b5f5ffd5b610072600480360381019061006d91906105d1565b610158565b005b34801561007f575f5ffd5b506100886102c9565b6040516100959190610745565b60405180910390f35b3480156100a9575f5ffd5b506100b261038c565b6040516100bf9190610774565b60405180910390f35b3480156100d3575f5ffd5b506100dc6103b1565b6040516100e991906107e8565b60405180910390f35b3480156100fd575f5ffd5b5061011860048036038101906101139190610801565b6103d6565b6040516101279392919061083b565b60405180910390f35b34801561013b575f5ffd5b50610156600480360381019061015191906105d1565b610429565b005b5f670de0b6b3a76400008261016d919061089d565b90505f5f8481548110610183576101826108de565b5b905f5260205f209060030201905060015f9054906101000a900473ffffffffffffffffffffffffffffffffffffffff1673ffffffffffffffffffffffffffffffffffffffff166323b872dd3033856040518463ffffffff1660e01b81526004016101ef9392919061090b565b5f604051808303815f87803b158015610206575f5ffd5b505af1158015610218573d5f5f3e3d5ffd5b5050505081816001015f82825461022f9190610940565b925050819055505f670de0b6b3a7640000826002015484610250919061089d565b61025a91906109a0565b9050815f015f9054906101000a900473ffffffffffffffffffffffffffffffffffffffff1673ffffffffffffffffffffffffffffffffffffffff166108fc8290811502906040515f60405180830381858888f193505050501580156102c1573d5f5f3e3d5ffd5b505050505050565b60605f805480602002602001604051908101604052809291908181526020015f905b82821015610383578382905f5260205f2090600302016040518060600160405290815f82015f9054906101000a900473ffffffffffffffffffffffffffffffffffffffff1673ffffffffffffffffffffffffffffffffffffffff1673ffffffffffffffffffffffffffffffffffffffff16815260200160018201548152602001600282015481525050815260200190600101906102eb565b50505050905090565b60025f9054906101000a900473ffffffffffffffffffffffffffffffffffffffff1681565b60015f9054906101000a900473ffffffffffffffffffffffffffffffffffffffff1681565b5f81815481106103e4575f80fd5b905f5260205f2090600302015f91509050805f015f9054906101000a900473ffffffffffffffffffffffffffffffffffffffff16908060010154908060020154905083565b5f670de0b6b3a76400008361043e919061089d565b90505f670de0b6b3a764000083610455919061089d565b905060015f9054906101000a900473ffffffffffffffffffffffffffffffffffffffff1673ffffffffffffffffffffffffffffffffffffffff166323b872dd3330856040518463ffffffff1660e01b81526004016104b59392919061090b565b5f604051808303815f87803b1580156104cc575f5ffd5b505af11580156104de573d5f5f3e3d5ffd5b505050505f60405180606001604052803373ffffffffffffffffffffffffffffffffffffffff16815260200184815260200183815250908060018154018082558091505060019003905f5260205f2090600302015f909190919091505f820151815f015f6101000a81548173ffffffffffffffffffffffffffffffffffffffff021916908373ffffffffffffffffffffffffffffffffffffffff1602179055506020820151816001015560408201518160020155505050505050565b5f5ffd5b5f819050919050565b6105b08161059e565b81146105ba575f5ffd5b50565b5f813590506105cb816105a7565b92915050565b5f5f604083850312156105e7576105e661059a565b5b5f6105f4858286016105bd565b9250506020610605858286016105bd565b9150509250929050565b5f81519050919050565b5f82825260208201905092915050565b5f819050602082019050919050565b5f73ffffffffffffffffffffffffffffffffffffffff82169050919050565b5f61066182610638565b9050919050565b61067181610657565b82525050565b6106808161059e565b82525050565b606082015f82015161069a5f850182610668565b5060208201516106ad6020850182610677565b5060408201516106c06040850182610677565b50505050565b5f6106d18383610686565b60608301905092915050565b5f602082019050919050565b5f6106f38261060f565b6106fd8185610619565b935061070883610629565b805f5b8381101561073857815161071f88826106c6565b975061072a836106dd565b92505060018101905061070b565b5085935050505092915050565b5f6020820190508181035f83015261075d81846106e9565b905092915050565b61076e81610657565b82525050565b5f6020820190506107875f830184610765565b92915050565b5f819050919050565b5f6107b06107ab6107a684610638565b61078d565b610638565b9050919050565b5f6107c182610796565b9050919050565b5f6107d2826107b7565b9050919050565b6107e2816107c8565b82525050565b5f6020820190506107fb5f8301846107d9565b92915050565b5f602082840312156108165761081561059a565b5b5f610823848285016105bd565b91505092915050565b6108358161059e565b82525050565b5f60608201905061084e5f830186610765565b61085b602083018561082c565b610868604083018461082c565b949350505050565b7f4e487b71000000000000000000000000000000000000000000000000000000005f52601160045260245ffd5b5f6108a78261059e565b91506108b28361059e565b92508282026108c08161059e565b915082820484148315176108d7576108d6610870565b5b5092915050565b7f4e487b71000000000000000000000000000000000000000000000000000000005f52603260045260245ffd5b5f60608201905061091e5f830186610765565b61092b6020830185610765565b610938604083018461082c565b949350505050565b5f61094a8261059e565b91506109558361059e565b925082820390508181111561096d5761096c610870565b5b92915050565b7f4e487b71000000000000000000000000000000000000000000000000000000005f52601260045260245ffd5b5f6109aa8261059e565b91506109b58361059e565b9250826109c5576109c4610973565b5b82820490509291505056fea26469706673582212205c3883770bac7698963fd9d75ede04d3be003cfbdc9e27479733dbf0579d09f764736f6c634300081e0033",
  "immutableReferences": {},
  "source": "// SPDX-License-Identifier: MIT\r\npragma solidity ^0.8.19;\r\n\r\ninterface IMintContract {\r\n    function transferFrom(address from, address to, uint256 amount) external;\r\n    function burnFrom(address from, uint256 amount) external;\r\n}\r\n\r\ncontract AMM{\r\n    struct Listing{\r\n        address seller;\r\n        uint256 amount;\r\n        uint256 pricePerCCT;\r\n    }\r\n\r\n    Listing[] public listings ;\r\n    IMintContract public mintContract;\r\n    uint256 constant CCT_DECIMALS = 10**18; // Scaling factor\r\n\r\n    address public consumer;\r\n\r\n    constructor(address _consumer,address _mintContract) payable{\r\n        require(_consumer != address(0), \"Validator address cannot be zero\");\r\n        consumer = _consumer;\r\n        mintContract = IMintContract(_mintContract);\r\n    }\r\n\r\n    function listTokens(uint256 _amount, uint256 _price) external {\r\n        uint256 scaledAmount = _amount * CCT_DECIMALS; // Convert to full units\r\n        uint256 scaledPrice = _price * 1 ether;\r\n\r\n        mintContract.transferFrom(msg.sender, address(this), scaledAmount);\r\n\r\n        // Check if seller already has a listing\r\n        // bool updated = false;\r\n        // for (uint256 i = 0; i < listings.length; i++) {\r\n        //     if (listings[i].seller == msg.sender) {\r\n        //         listings[i].amount += scaledAmount;\r\n        //         listings[i].pricePerCCT = scaledPrice;\r\n        //         updated = true;\r\n        //         break;\r\n        //     }\r\n        // }\r\n\r\n        //if(!updated){\r\n            listings.push(Listing({\r\n                seller: msg.sender,\r\n                amount: scaledAmount,\r\n                pricePerCCT: scaledPrice\r\n            }));\r\n        //}\r\n    }\r\n\r\n    function fetchListings() external view returns (Listing[] memory){\r\n        return listings;\r\n    }\r\n\r\n    function buyTokens(uint256 index, uint256 _amount) external payable{\r\n        uint256 scaledBuyAmount=_amount*CCT_DECIMALS;\r\n\r\n        //find the listing //issue part\r\n        // uint256 listingIdx=type(uint256).max;\r\n        // for(uint256 i=0;i<listings.length;i++){\r\n        //     if(listings[i].seller== _gen){\r\n        //         listingIdx=i;\r\n        //         break;\r\n        //     }\r\n        // }\r\n\r\n        //check if the seller has enough cct\r\n        Listing storage listing = listings[index];\r\n        //require(listing.amount>=scaledBuyAmount,\"Seller does not have enough CCT\");\r\n        \r\n        //transfer cct\r\n        mintContract.transferFrom(address(this),msg.sender,scaledBuyAmount);\r\n        listing.amount-=scaledBuyAmount;\r\n\r\n        //send eth\r\n        uint256 totalETH=(scaledBuyAmount * listing.pricePerCCT)/CCT_DECIMALS;\r\n        payable(listing.seller).transfer(totalETH);\r\n    }\r\n\r\n    //retire tokens\r\n    // function burnTokens(uint256 _amount) public{\r\n    //     uint256 scaledAmount = _amount * CCT_DECIMALS;\r\n    //     mintContract.burnFrom(msg.sender,scaledAmount);\r\n    // }\r\n}",
  "sourcePath": "D:\\carbon-credit-ecosystem\\contracts\\AMM.sol",
  "compiler": {
    "name": "solc",
    "version": "0.8.30+commit.73712a01.Emscripten.clang"
  },
  "schemaVersion": "3.4.16",
  "updatedAt": "2025-05-25T06:25:40.061Z",
  "networkType": "ethereum",
  "devdoc": {
    "kind": "dev",
    "methods": {},
    "version": 1
  },
  "userdoc": {
    "kind": "user",
    "methods": {},
    "version": 1
  }
}