{
  "contractName": "AMM",
  "abi": [
    {
      "inputs": [
        {
          "internalType": "address",
          "name": "_mintContract",
          "type": "address"
        }
      ],
      "stateMutability": "nonpayable",
      "type": "constructor"
    },
    {
      "inputs": [
        {
          "internalType": "uint256",
          "name": "",
          "type": "uint256"
        }
      ],
      "name": "listings",
      "outputs": [
        {
          "internalType": "address",
          "name": "seller",
          "type": "address"
        },
        {
          "internalType": "uint256",
          "name": "amount",
          "type": "uint256"
        },
        {
          "internalType": "uint256",
          "name": "pricePerCCT",
          "type": "uint256"
        }
      ],
      "stateMutability": "view",
      "type": "function",
      "constant": true
    },
    {
      "inputs": [],
      "name": "mintContract",
      "outputs": [
        {
          "internalType": "contract IMintContract",
          "name": "",
          "type": "address"
        }
      ],
      "stateMutability": "view",
      "type": "function",
      "constant": true
    },
    {
      "inputs": [
        {
          "internalType": "uint256",
          "name": "_amount",
          "type": "uint256"
        },
        {
          "internalType": "uint256",
          "name": "_price",
          "type": "uint256"
        }
      ],
      "name": "listTokens",
      "outputs": [],
      "stateMutability": "nonpayable",
      "type": "function"
    },
    {
      "inputs": [],
      "name": "fetchListings",
      "outputs": [
        {
          "components": [
            {
              "internalType": "address",
              "name": "seller",
              "type": "address"
            },
            {
              "internalType": "uint256",
              "name": "amount",
              "type": "uint256"
            },
            {
              "internalType": "uint256",
              "name": "pricePerCCT",
              "type": "uint256"
            }
          ],
          "internalType": "struct AMM.Listing[]",
          "name": "",
          "type": "tuple[]"
        }
      ],
      "stateMutability": "view",
      "type": "function",
      "constant": true
    }
  ],
  "bytecode": "0x608060405234801561000f575f5ffd5b5060405161080f38038061080f833981810160405281019061003191906100d5565b8060015f6101000a81548173ffffffffffffffffffffffffffffffffffffffff021916908373ffffffffffffffffffffffffffffffffffffffff16021790555050610100565b5f5ffd5b5f73ffffffffffffffffffffffffffffffffffffffff82169050919050565b5f6100a48261007b565b9050919050565b6100b48161009a565b81146100be575f5ffd5b50565b5f815190506100cf816100ab565b92915050565b5f602082840312156100ea576100e9610077565b5b5f6100f7848285016100c1565b91505092915050565b6107028061010d5f395ff3fe608060405234801561000f575f5ffd5b506004361061004a575f3560e01c8063a80f99ec1461004e578063d0b6b6db1461006c578063de74e57b1461008a578063e30e5ae9146100bc575b5f5ffd5b6100566100d8565b60405161006391906104ab565b60405180910390f35b61007461019b565b6040516100819190610526565b60405180910390f35b6100a4600480360381019061009f919061056d565b6101c0565b6040516100b3939291906105b6565b60405180910390f35b6100d660048036038101906100d191906105eb565b610213565b005b60605f805480602002602001604051908101604052809291908181526020015f905b82821015610192578382905f5260205f2090600302016040518060600160405290815f82015f9054906101000a900473ffffffffffffffffffffffffffffffffffffffff1673ffffffffffffffffffffffffffffffffffffffff1673ffffffffffffffffffffffffffffffffffffffff16815260200160018201548152602001600282015481525050815260200190600101906100fa565b50505050905090565b60015f9054906101000a900473ffffffffffffffffffffffffffffffffffffffff1681565b5f81815481106101ce575f80fd5b905f5260205f2090600302015f91509050805f015f9054906101000a900473ffffffffffffffffffffffffffffffffffffffff16908060010154908060020154905083565b5f670de0b6b3a7640000836102289190610656565b905060015f9054906101000a900473ffffffffffffffffffffffffffffffffffffffff1673ffffffffffffffffffffffffffffffffffffffff166323b872dd3330846040518463ffffffff1660e01b815260040161028893929190610697565b5f604051808303815f87803b15801561029f575f5ffd5b505af11580156102b1573d5f5f3e3d5ffd5b505050505f60405180606001604052803373ffffffffffffffffffffffffffffffffffffffff16815260200183815260200184815250908060018154018082558091505060019003905f5260205f2090600302015f909190919091505f820151815f015f6101000a81548173ffffffffffffffffffffffffffffffffffffffff021916908373ffffffffffffffffffffffffffffffffffffffff16021790555060208201518160010155604082015181600201555050505050565b5f81519050919050565b5f82825260208201905092915050565b5f819050602082019050919050565b5f73ffffffffffffffffffffffffffffffffffffffff82169050919050565b5f6103be82610395565b9050919050565b6103ce816103b4565b82525050565b5f819050919050565b6103e6816103d4565b82525050565b606082015f8201516104005f8501826103c5565b50602082015161041360208501826103dd565b50604082015161042660408501826103dd565b50505050565b5f61043783836103ec565b60608301905092915050565b5f602082019050919050565b5f6104598261036c565b6104638185610376565b935061046e83610386565b805f5b8381101561049e578151610485888261042c565b975061049083610443565b925050600181019050610471565b5085935050505092915050565b5f6020820190508181035f8301526104c3818461044f565b905092915050565b5f819050919050565b5f6104ee6104e96104e484610395565b6104cb565b610395565b9050919050565b5f6104ff826104d4565b9050919050565b5f610510826104f5565b9050919050565b61052081610506565b82525050565b5f6020820190506105395f830184610517565b92915050565b5f5ffd5b61054c816103d4565b8114610556575f5ffd5b50565b5f8135905061056781610543565b92915050565b5f602082840312156105825761058161053f565b5b5f61058f84828501610559565b91505092915050565b6105a1816103b4565b82525050565b6105b0816103d4565b82525050565b5f6060820190506105c95f830186610598565b6105d660208301856105a7565b6105e360408301846105a7565b949350505050565b5f5f604083850312156106015761060061053f565b5b5f61060e85828601610559565b925050602061061f85828601610559565b9150509250929050565b7f4e487b71000000000000000000000000000000000000000000000000000000005f52601160045260245ffd5b5f610660826103d4565b915061066b836103d4565b9250828202610679816103d4565b915082820484148315176106905761068f610629565b5b5092915050565b5f6060820190506106aa5f830186610598565b6106b76020830185610598565b6106c460408301846105a7565b94935050505056fea264697066735822122069afc39195fc88e686c3bb74455c5ff21511f8baffd2c03d3cffabe9d1ae3d1464736f6c634300081d0033",
  "immutableReferences": {},
  "source": "// SPDX-License-Identifier: MIT\r\npragma solidity ^0.8.19;\r\n\r\ninterface IMintContract {\r\n    function transferFrom(address from, address to, uint256 amount) external;\r\n}\r\n\r\ncontract AMM{\r\n    struct Listing{\r\n        address seller;\r\n        uint256 amount;\r\n        uint256 pricePerCCT;\r\n    }\r\n\r\n    Listing[] public listings ;\r\n    IMintContract public mintContract;\r\n    uint256 constant CCT_DECIMALS = 10**18; // Scaling factor\r\n\r\n    constructor(address _mintContract) {\r\n        mintContract = IMintContract(_mintContract);\r\n    }\r\n\r\n    function listTokens(uint256 _amount, uint256 _price) external {\r\n        uint256 scaledAmount = _amount * CCT_DECIMALS; // Convert to full units\r\n\r\n        mintContract.transferFrom(msg.sender, address(this), scaledAmount);\r\n\r\n        listings.push(Listing({\r\n            seller: msg.sender,\r\n            amount: scaledAmount,\r\n            pricePerCCT: _price\r\n        }));\r\n    }\r\n\r\n    function fetchListings() external view returns (Listing[] memory){\r\n        return listings;\r\n    }\r\n}",
  "sourcePath": "D:\\carbon-credit-ecosystem\\contracts\\AMM.sol",
  "compiler": {
    "name": "solc",
    "version": "0.8.29+commit.ab55807c.Emscripten.clang"
  },
  "schemaVersion": "3.4.16",
  "updatedAt": "2025-03-23T18:17:18.693Z",
  "networkType": "ethereum",
  "devdoc": {
    "kind": "dev",
    "methods": {},
    "version": 1
  },
  "userdoc": {
    "kind": "user",
    "methods": {},
    "version": 1
  }
}