{
  "contractName": "AMM",
  "abi": [
    {
      "inputs": [
        {
          "internalType": "address",
          "name": "_mintContract",
          "type": "address"
        }
      ],
      "stateMutability": "nonpayable",
      "type": "constructor"
    },
    {
      "inputs": [
        {
          "internalType": "uint256",
          "name": "",
          "type": "uint256"
        }
      ],
      "name": "listings",
      "outputs": [
        {
          "internalType": "address",
          "name": "seller",
          "type": "address"
        },
        {
          "internalType": "uint256",
          "name": "amount",
          "type": "uint256"
        },
        {
          "internalType": "uint256",
          "name": "pricePerCCT",
          "type": "uint256"
        }
      ],
      "stateMutability": "view",
      "type": "function",
      "constant": true
    },
    {
      "inputs": [],
      "name": "mintContract",
      "outputs": [
        {
          "internalType": "contract IMintContract",
          "name": "",
          "type": "address"
        }
      ],
      "stateMutability": "view",
      "type": "function",
      "constant": true
    },
    {
      "inputs": [
        {
          "internalType": "uint256",
          "name": "_amount",
          "type": "uint256"
        },
        {
          "internalType": "uint256",
          "name": "_price",
          "type": "uint256"
        }
      ],
      "name": "listTokens",
      "outputs": [],
      "stateMutability": "nonpayable",
      "type": "function"
    },
    {
      "inputs": [],
      "name": "fetchListings",
      "outputs": [
        {
          "components": [
            {
              "internalType": "address",
              "name": "seller",
              "type": "address"
            },
            {
              "internalType": "uint256",
              "name": "amount",
              "type": "uint256"
            },
            {
              "internalType": "uint256",
              "name": "pricePerCCT",
              "type": "uint256"
            }
          ],
          "internalType": "struct AMM.Listing[]",
          "name": "",
          "type": "tuple[]"
        }
      ],
      "stateMutability": "view",
      "type": "function",
      "constant": true
    },
    {
      "inputs": [
        {
          "internalType": "address",
          "name": "_gen",
          "type": "address"
        },
        {
          "internalType": "uint256",
          "name": "_amount",
          "type": "uint256"
        }
      ],
      "name": "buyTokens",
      "outputs": [],
      "stateMutability": "payable",
      "type": "function",
      "payable": true
    }
  ],
  "bytecode": "0x608060405234801561000f575f5ffd5b50604051610c64380380610c64833981810160405281019061003191906100d5565b8060015f6101000a81548173ffffffffffffffffffffffffffffffffffffffff021916908373ffffffffffffffffffffffffffffffffffffffff16021790555050610100565b5f5ffd5b5f73ffffffffffffffffffffffffffffffffffffffff82169050919050565b5f6100a48261007b565b9050919050565b6100b48161009a565b81146100be575f5ffd5b50565b5f815190506100cf816100ab565b92915050565b5f602082840312156100ea576100e9610077565b5b5f6100f7848285016100c1565b91505092915050565b610b578061010d5f395ff3fe608060405260043610610049575f3560e01c80630752881a1461004d578063a80f99ec14610069578063d0b6b6db14610093578063de74e57b146100bd578063e30e5ae9146100fb575b5f5ffd5b610067600480360381019061006291906106b5565b610123565b005b348015610074575f5ffd5b5061007d610378565b60405161008a91906107f9565b60405180910390f35b34801561009e575f5ffd5b506100a761043b565b6040516100b49190610874565b60405180910390f35b3480156100c8575f5ffd5b506100e360048036038101906100de919061088d565b610460565b6040516100f2939291906108d6565b60405180910390f35b348015610106575f5ffd5b50610121600480360381019061011c919061090b565b6104b3565b005b5f670de0b6b3a7640000826101389190610976565b90505f7fffffffffffffffffffffffffffffffffffffffffffffffffffffffffffffffff90505f5f90505b5f805490508110156101f7578473ffffffffffffffffffffffffffffffffffffffff165f8281548110610199576101986109b7565b5b905f5260205f2090600302015f015f9054906101000a900473ffffffffffffffffffffffffffffffffffffffff1673ffffffffffffffffffffffffffffffffffffffff16036101ea578091506101f7565b8080600101915050610163565b505f5f828154811061020c5761020b6109b7565b5b905f5260205f20906003020190508281600101541015610261576040517f08c379a000000000000000000000000000000000000000000000000000000000815260040161025890610a3e565b60405180910390fd5b60015f9054906101000a900473ffffffffffffffffffffffffffffffffffffffff1673ffffffffffffffffffffffffffffffffffffffff166323b872dd3033866040518463ffffffff1660e01b81526004016102bf93929190610a5c565b5f604051808303815f87803b1580156102d6575f5ffd5b505af11580156102e8573d5f5f3e3d5ffd5b5050505082816001015f8282546102ff9190610a91565b925050819055505f670de0b6b3a76400008260020154856103209190610976565b61032a9190610af1565b90508573ffffffffffffffffffffffffffffffffffffffff166108fc8290811502906040515f60405180830381858888f1935050505015801561036f573d5f5f3e3d5ffd5b50505050505050565b60605f805480602002602001604051908101604052809291908181526020015f905b82821015610432578382905f5260205f2090600302016040518060600160405290815f82015f9054906101000a900473ffffffffffffffffffffffffffffffffffffffff1673ffffffffffffffffffffffffffffffffffffffff1673ffffffffffffffffffffffffffffffffffffffff168152602001600182015481526020016002820154815250508152602001906001019061039a565b50505050905090565b60015f9054906101000a900473ffffffffffffffffffffffffffffffffffffffff1681565b5f818154811061046e575f80fd5b905f5260205f2090600302015f91509050805f015f9054906101000a900473ffffffffffffffffffffffffffffffffffffffff16908060010154908060020154905083565b5f670de0b6b3a7640000836104c89190610976565b90505f670de0b6b3a7640000836104df9190610976565b905060015f9054906101000a900473ffffffffffffffffffffffffffffffffffffffff1673ffffffffffffffffffffffffffffffffffffffff166323b872dd3330856040518463ffffffff1660e01b815260040161053f93929190610a5c565b5f604051808303815f87803b158015610556575f5ffd5b505af1158015610568573d5f5f3e3d5ffd5b505050505f60405180606001604052803373ffffffffffffffffffffffffffffffffffffffff16815260200184815260200183815250908060018154018082558091505060019003905f5260205f2090600302015f909190919091505f820151815f015f6101000a81548173ffffffffffffffffffffffffffffffffffffffff021916908373ffffffffffffffffffffffffffffffffffffffff1602179055506020820151816001015560408201518160020155505050505050565b5f5ffd5b5f73ffffffffffffffffffffffffffffffffffffffff82169050919050565b5f61065182610628565b9050919050565b61066181610647565b811461066b575f5ffd5b50565b5f8135905061067c81610658565b92915050565b5f819050919050565b61069481610682565b811461069e575f5ffd5b50565b5f813590506106af8161068b565b92915050565b5f5f604083850312156106cb576106ca610624565b5b5f6106d88582860161066e565b92505060206106e9858286016106a1565b9150509250929050565b5f81519050919050565b5f82825260208201905092915050565b5f819050602082019050919050565b61072581610647565b82525050565b61073481610682565b82525050565b606082015f82015161074e5f85018261071c565b506020820151610761602085018261072b565b506040820151610774604085018261072b565b50505050565b5f610785838361073a565b60608301905092915050565b5f602082019050919050565b5f6107a7826106f3565b6107b181856106fd565b93506107bc8361070d565b805f5b838110156107ec5781516107d3888261077a565b97506107de83610791565b9250506001810190506107bf565b5085935050505092915050565b5f6020820190508181035f830152610811818461079d565b905092915050565b5f819050919050565b5f61083c61083761083284610628565b610819565b610628565b9050919050565b5f61084d82610822565b9050919050565b5f61085e82610843565b9050919050565b61086e81610854565b82525050565b5f6020820190506108875f830184610865565b92915050565b5f602082840312156108a2576108a1610624565b5b5f6108af848285016106a1565b91505092915050565b6108c181610647565b82525050565b6108d081610682565b82525050565b5f6060820190506108e95f8301866108b8565b6108f660208301856108c7565b61090360408301846108c7565b949350505050565b5f5f6040838503121561092157610920610624565b5b5f61092e858286016106a1565b925050602061093f858286016106a1565b9150509250929050565b7f4e487b71000000000000000000000000000000000000000000000000000000005f52601160045260245ffd5b5f61098082610682565b915061098b83610682565b925082820261099981610682565b915082820484148315176109b0576109af610949565b5b5092915050565b7f4e487b71000000000000000000000000000000000000000000000000000000005f52603260045260245ffd5b5f82825260208201905092915050565b7f53656c6c657220646f6573206e6f74206861766520656e6f75676820434354005f82015250565b5f610a28601f836109e4565b9150610a33826109f4565b602082019050919050565b5f6020820190508181035f830152610a5581610a1c565b9050919050565b5f606082019050610a6f5f8301866108b8565b610a7c60208301856108b8565b610a8960408301846108c7565b949350505050565b5f610a9b82610682565b9150610aa683610682565b9250828203905081811115610abe57610abd610949565b5b92915050565b7f4e487b71000000000000000000000000000000000000000000000000000000005f52601260045260245ffd5b5f610afb82610682565b9150610b0683610682565b925082610b1657610b15610ac4565b5b82820490509291505056fea2646970667358221220f81084726b03feba5d39324d2a290f3883c3a248442812f447398caec9ba6e5c64736f6c634300081d0033",
  "immutableReferences": {},
  "source": "// SPDX-License-Identifier: MIT\r\npragma solidity ^0.8.19;\r\n\r\ninterface IMintContract {\r\n    function transferFrom(address from, address to, uint256 amount) external;\r\n}\r\n\r\ncontract AMM{\r\n    struct Listing{\r\n        address seller;\r\n        uint256 amount;\r\n        uint256 pricePerCCT;\r\n    }\r\n\r\n    Listing[] public listings ;\r\n    IMintContract public mintContract;\r\n    uint256 constant CCT_DECIMALS = 10**18; // Scaling factor\r\n\r\n    constructor(address _mintContract) {\r\n        mintContract = IMintContract(_mintContract);\r\n    }\r\n\r\n    function listTokens(uint256 _amount, uint256 _price) external {\r\n        uint256 scaledAmount = _amount * CCT_DECIMALS; // Convert to full units\r\n        uint256 scaledPrice = _price * 1 ether;\r\n\r\n        mintContract.transferFrom(msg.sender, address(this), scaledAmount);\r\n\r\n        listings.push(Listing({\r\n            seller: msg.sender,\r\n            amount: scaledAmount,\r\n            pricePerCCT: scaledPrice\r\n        }));\r\n    }\r\n\r\n    function fetchListings() external view returns (Listing[] memory){\r\n        return listings;\r\n    }\r\n\r\n    function buyTokens(address _gen, uint256 _amount) external payable{\r\n        uint256 scaledBuyAmount=_amount*CCT_DECIMALS;\r\n\r\n        //find the listing\r\n        uint256 listingIdx=type(uint256).max;\r\n        for(uint256 i=0;i<listings.length;i++){\r\n            if(listings[i].seller== _gen){\r\n                listingIdx=i;\r\n                break;\r\n            }\r\n        }\r\n\r\n        //check if the seller has enough cct\r\n        Listing storage listing = listings[listingIdx];\r\n        require(listing.amount>=scaledBuyAmount,\"Seller does not have enough CCT\");\r\n        \r\n        //transfer cct\r\n        mintContract.transferFrom(address(this),msg.sender,scaledBuyAmount);\r\n        listing.amount-=scaledBuyAmount;\r\n\r\n        //send eth\r\n        uint256 totalETH=(scaledBuyAmount * listing.pricePerCCT)/CCT_DECIMALS;\r\n        payable(_gen).transfer(totalETH);\r\n    }\r\n}",
  "sourcePath": "D:\\carbon-credit-ecosystem\\contracts\\AMM.sol",
  "compiler": {
    "name": "solc",
    "version": "0.8.29+commit.ab55807c.Emscripten.clang"
  },
  "schemaVersion": "3.4.16",
  "updatedAt": "2025-03-24T21:36:03.464Z",
  "networkType": "ethereum",
  "devdoc": {
    "kind": "dev",
    "methods": {},
    "version": 1
  },
  "userdoc": {
    "kind": "user",
    "methods": {},
    "version": 1
  }
}