{
  "contractName": "AMM",
  "abi": [
    {
      "inputs": [
        {
          "internalType": "address",
          "name": "_consumer",
          "type": "address"
        },
        {
          "internalType": "address",
          "name": "_mintContract",
          "type": "address"
        }
      ],
      "stateMutability": "payable",
      "type": "constructor",
      "payable": true
    },
    {
      "inputs": [],
      "name": "consumer",
      "outputs": [
        {
          "internalType": "address",
          "name": "",
          "type": "address"
        }
      ],
      "stateMutability": "view",
      "type": "function",
      "constant": true
    },
    {
      "inputs": [
        {
          "internalType": "uint256",
          "name": "",
          "type": "uint256"
        }
      ],
      "name": "listings",
      "outputs": [
        {
          "internalType": "address",
          "name": "seller",
          "type": "address"
        },
        {
          "internalType": "uint256",
          "name": "amount",
          "type": "uint256"
        },
        {
          "internalType": "uint256",
          "name": "pricePerCCT",
          "type": "uint256"
        }
      ],
      "stateMutability": "view",
      "type": "function",
      "constant": true
    },
    {
      "inputs": [],
      "name": "mintContract",
      "outputs": [
        {
          "internalType": "contract IMintContract",
          "name": "",
          "type": "address"
        }
      ],
      "stateMutability": "view",
      "type": "function",
      "constant": true
    },
    {
      "inputs": [
        {
          "internalType": "uint256",
          "name": "_amount",
          "type": "uint256"
        },
        {
          "internalType": "uint256",
          "name": "_price",
          "type": "uint256"
        }
      ],
      "name": "listTokens",
      "outputs": [],
      "stateMutability": "nonpayable",
      "type": "function"
    },
    {
      "inputs": [],
      "name": "fetchListings",
      "outputs": [
        {
          "components": [
            {
              "internalType": "address",
              "name": "seller",
              "type": "address"
            },
            {
              "internalType": "uint256",
              "name": "amount",
              "type": "uint256"
            },
            {
              "internalType": "uint256",
              "name": "pricePerCCT",
              "type": "uint256"
            }
          ],
          "internalType": "struct AMM.Listing[]",
          "name": "",
          "type": "tuple[]"
        }
      ],
      "stateMutability": "view",
      "type": "function",
      "constant": true
    },
    {
      "inputs": [
        {
          "internalType": "address",
          "name": "_gen",
          "type": "address"
        },
        {
          "internalType": "uint256",
          "name": "_amount",
          "type": "uint256"
        }
      ],
      "name": "buyTokens",
      "outputs": [],
      "stateMutability": "payable",
      "type": "function",
      "payable": true
    },
    {
      "inputs": [
        {
          "internalType": "uint256",
          "name": "_amount",
          "type": "uint256"
        }
      ],
      "name": "burnTokens",
      "outputs": [],
      "stateMutability": "nonpayable",
      "type": "function"
    }
  ],
  "bytecode": "0x6080604052604051610e54380380610e5483398181016040528101906100259190610178565b5f73ffffffffffffffffffffffffffffffffffffffff168273ffffffffffffffffffffffffffffffffffffffff1603610093576040517f08c379a000000000000000000000000000000000000000000000000000000000815260040161008a90610210565b60405180910390fd5b8160025f6101000a81548173ffffffffffffffffffffffffffffffffffffffff021916908373ffffffffffffffffffffffffffffffffffffffff1602179055508060015f6101000a81548173ffffffffffffffffffffffffffffffffffffffff021916908373ffffffffffffffffffffffffffffffffffffffff160217905550505061022e565b5f5ffd5b5f73ffffffffffffffffffffffffffffffffffffffff82169050919050565b5f6101478261011e565b9050919050565b6101578161013d565b8114610161575f5ffd5b50565b5f815190506101728161014e565b92915050565b5f5f6040838503121561018e5761018d61011a565b5b5f61019b85828601610164565b92505060206101ac85828601610164565b9150509250929050565b5f82825260208201905092915050565b7f56616c696461746f7220616464726573732063616e6e6f74206265207a65726f5f82015250565b5f6101fa6020836101b6565b9150610205826101c6565b602082019050919050565b5f6020820190508181035f830152610227816101ee565b9050919050565b610c198061023b5f395ff3fe60806040526004361061006f575f3560e01c8063b4fd72961161004d578063b4fd7296146100e1578063d0b6b6db1461010b578063de74e57b14610135578063e30e5ae9146101735761006f565b80630752881a146100735780636d1b229d1461008f578063a80f99ec146100b7575b5f5ffd5b61008d600480360381019061008891906107af565b61019b565b005b34801561009a575f5ffd5b506100b560048036038101906100b091906107ed565b6103a9565b005b3480156100c2575f5ffd5b506100cb61044d565b6040516100d8919061091e565b60405180910390f35b3480156100ec575f5ffd5b506100f5610510565b604051610102919061094d565b60405180910390f35b348015610116575f5ffd5b5061011f610535565b60405161012c91906109c1565b60405180910390f35b348015610140575f5ffd5b5061015b600480360381019061015691906107ed565b61055a565b60405161016a939291906109e9565b60405180910390f35b34801561017e575f5ffd5b5061019960048036038101906101949190610a1e565b6105ad565b005b5f670de0b6b3a7640000826101b09190610a89565b90505f7fffffffffffffffffffffffffffffffffffffffffffffffffffffffffffffffff90505f5f90505b5f8054905081101561026f578473ffffffffffffffffffffffffffffffffffffffff165f828154811061021157610210610aca565b5b905f5260205f2090600302015f015f9054906101000a900473ffffffffffffffffffffffffffffffffffffffff1673ffffffffffffffffffffffffffffffffffffffff16036102625780915061026f565b80806001019150506101db565b505f5f828154811061028457610283610aca565b5b905f5260205f209060030201905060015f9054906101000a900473ffffffffffffffffffffffffffffffffffffffff1673ffffffffffffffffffffffffffffffffffffffff166323b872dd3033866040518463ffffffff1660e01b81526004016102f093929190610af7565b5f604051808303815f87803b158015610307575f5ffd5b505af1158015610319573d5f5f3e3d5ffd5b5050505082816001015f8282546103309190610b2c565b925050819055505f670de0b6b3a76400008260020154856103519190610a89565b61035b9190610b8c565b90508573ffffffffffffffffffffffffffffffffffffffff166108fc8290811502906040515f60405180830381858888f193505050501580156103a0573d5f5f3e3d5ffd5b50505050505050565b5f670de0b6b3a7640000826103be9190610a89565b905060015f9054906101000a900473ffffffffffffffffffffffffffffffffffffffff1673ffffffffffffffffffffffffffffffffffffffff166379cc679033836040518363ffffffff1660e01b815260040161041c929190610bbc565b5f604051808303815f87803b158015610433575f5ffd5b505af1158015610445573d5f5f3e3d5ffd5b505050505050565b60605f805480602002602001604051908101604052809291908181526020015f905b82821015610507578382905f5260205f2090600302016040518060600160405290815f82015f9054906101000a900473ffffffffffffffffffffffffffffffffffffffff1673ffffffffffffffffffffffffffffffffffffffff1673ffffffffffffffffffffffffffffffffffffffff168152602001600182015481526020016002820154815250508152602001906001019061046f565b50505050905090565b60025f9054906101000a900473ffffffffffffffffffffffffffffffffffffffff1681565b60015f9054906101000a900473ffffffffffffffffffffffffffffffffffffffff1681565b5f8181548110610568575f80fd5b905f5260205f2090600302015f91509050805f015f9054906101000a900473ffffffffffffffffffffffffffffffffffffffff16908060010154908060020154905083565b5f670de0b6b3a7640000836105c29190610a89565b90505f670de0b6b3a7640000836105d99190610a89565b905060015f9054906101000a900473ffffffffffffffffffffffffffffffffffffffff1673ffffffffffffffffffffffffffffffffffffffff166323b872dd3330856040518463ffffffff1660e01b815260040161063993929190610af7565b5f604051808303815f87803b158015610650575f5ffd5b505af1158015610662573d5f5f3e3d5ffd5b505050505f60405180606001604052803373ffffffffffffffffffffffffffffffffffffffff16815260200184815260200183815250908060018154018082558091505060019003905f5260205f2090600302015f909190919091505f820151815f015f6101000a81548173ffffffffffffffffffffffffffffffffffffffff021916908373ffffffffffffffffffffffffffffffffffffffff1602179055506020820151816001015560408201518160020155505050505050565b5f5ffd5b5f73ffffffffffffffffffffffffffffffffffffffff82169050919050565b5f61074b82610722565b9050919050565b61075b81610741565b8114610765575f5ffd5b50565b5f8135905061077681610752565b92915050565b5f819050919050565b61078e8161077c565b8114610798575f5ffd5b50565b5f813590506107a981610785565b92915050565b5f5f604083850312156107c5576107c461071e565b5b5f6107d285828601610768565b92505060206107e38582860161079b565b9150509250929050565b5f602082840312156108025761080161071e565b5b5f61080f8482850161079b565b91505092915050565b5f81519050919050565b5f82825260208201905092915050565b5f819050602082019050919050565b61084a81610741565b82525050565b6108598161077c565b82525050565b606082015f8201516108735f850182610841565b5060208201516108866020850182610850565b5060408201516108996040850182610850565b50505050565b5f6108aa838361085f565b60608301905092915050565b5f602082019050919050565b5f6108cc82610818565b6108d68185610822565b93506108e183610832565b805f5b838110156109115781516108f8888261089f565b9750610903836108b6565b9250506001810190506108e4565b5085935050505092915050565b5f6020820190508181035f83015261093681846108c2565b905092915050565b61094781610741565b82525050565b5f6020820190506109605f83018461093e565b92915050565b5f819050919050565b5f61098961098461097f84610722565b610966565b610722565b9050919050565b5f61099a8261096f565b9050919050565b5f6109ab82610990565b9050919050565b6109bb816109a1565b82525050565b5f6020820190506109d45f8301846109b2565b92915050565b6109e38161077c565b82525050565b5f6060820190506109fc5f83018661093e565b610a0960208301856109da565b610a1660408301846109da565b949350505050565b5f5f60408385031215610a3457610a3361071e565b5b5f610a418582860161079b565b9250506020610a528582860161079b565b9150509250929050565b7f4e487b71000000000000000000000000000000000000000000000000000000005f52601160045260245ffd5b5f610a938261077c565b9150610a9e8361077c565b9250828202610aac8161077c565b91508282048414831517610ac357610ac2610a5c565b5b5092915050565b7f4e487b71000000000000000000000000000000000000000000000000000000005f52603260045260245ffd5b5f606082019050610b0a5f83018661093e565b610b17602083018561093e565b610b2460408301846109da565b949350505050565b5f610b368261077c565b9150610b418361077c565b9250828203905081811115610b5957610b58610a5c565b5b92915050565b7f4e487b71000000000000000000000000000000000000000000000000000000005f52601260045260245ffd5b5f610b968261077c565b9150610ba18361077c565b925082610bb157610bb0610b5f565b5b828204905092915050565b5f604082019050610bcf5f83018561093e565b610bdc60208301846109da565b939250505056fea2646970667358221220d90065c6145e494ffa1d21c39570c216841d7771c01f6d8a7acb1c9b08d7f84464736f6c634300081d0033",
  "immutableReferences": {},
  "source": "// SPDX-License-Identifier: MIT\r\npragma solidity ^0.8.19;\r\n\r\ninterface IMintContract {\r\n    function transferFrom(address from, address to, uint256 amount) external;\r\n    function burnFrom(address from, uint256 amount) external;\r\n}\r\n\r\ncontract AMM{\r\n    struct Listing{\r\n        address seller;\r\n        uint256 amount;\r\n        uint256 pricePerCCT;\r\n    }\r\n\r\n    Listing[] public listings ;\r\n    IMintContract public mintContract;\r\n    uint256 constant CCT_DECIMALS = 10**18; // Scaling factor\r\n\r\n    address public consumer;\r\n\r\n    constructor(address _consumer,address _mintContract) payable{\r\n        require(_consumer != address(0), \"Validator address cannot be zero\");\r\n        consumer = _consumer;\r\n        mintContract = IMintContract(_mintContract);\r\n    }\r\n\r\n    function listTokens(uint256 _amount, uint256 _price) external {\r\n        uint256 scaledAmount = _amount * CCT_DECIMALS; // Convert to full units\r\n        uint256 scaledPrice = _price * 1 ether;\r\n\r\n        mintContract.transferFrom(msg.sender, address(this), scaledAmount);\r\n\r\n        listings.push(Listing({\r\n            seller: msg.sender,\r\n            amount: scaledAmount,\r\n            pricePerCCT: scaledPrice\r\n        }));\r\n    }\r\n\r\n    function fetchListings() external view returns (Listing[] memory){\r\n        return listings;\r\n    }\r\n\r\n    function buyTokens(address _gen, uint256 _amount) external payable{\r\n        uint256 scaledBuyAmount=_amount*CCT_DECIMALS;\r\n\r\n        //find the listing //issue part\r\n        uint256 listingIdx=type(uint256).max;\r\n        for(uint256 i=0;i<listings.length;i++){\r\n            if(listings[i].seller== _gen){\r\n                listingIdx=i;\r\n                break;\r\n            }\r\n        }\r\n\r\n        //check if the seller has enough cct\r\n        Listing storage listing = listings[listingIdx];\r\n        //require(listing.amount>=scaledBuyAmount,\"Seller does not have enough CCT\");\r\n        \r\n        //transfer cct\r\n        mintContract.transferFrom(address(this),msg.sender,scaledBuyAmount);\r\n        listing.amount-=scaledBuyAmount;\r\n\r\n        //send eth\r\n        uint256 totalETH=(scaledBuyAmount * listing.pricePerCCT)/CCT_DECIMALS;\r\n        payable(_gen).transfer(totalETH);\r\n    }\r\n\r\n    //retire tokens\r\n    function burnTokens(uint256 _amount) public{\r\n        uint256 scaledAmount = _amount * CCT_DECIMALS;\r\n        mintContract.burnFrom(msg.sender,scaledAmount);\r\n    }\r\n}",
  "sourcePath": "D:\\carbon-credit-ecosystem\\contracts\\AMM.sol",
  "compiler": {
    "name": "solc",
    "version": "0.8.29+commit.ab55807c.Emscripten.clang"
  },
  "schemaVersion": "3.4.16",
  "updatedAt": "2025-04-04T15:12:20.021Z",
  "networkType": "ethereum",
  "devdoc": {
    "kind": "dev",
    "methods": {},
    "version": 1
  },
  "userdoc": {
    "kind": "user",
    "methods": {},
    "version": 1
  }
}