{
  "contractName": "AMM",
  "abi": [
    {
      "inputs": [
        {
          "internalType": "address",
          "name": "_consumer",
          "type": "address"
        },
        {
          "internalType": "address",
          "name": "_mintContract",
          "type": "address"
        }
      ],
      "stateMutability": "payable",
      "type": "constructor",
      "payable": true
    },
    {
      "inputs": [],
      "name": "consumer",
      "outputs": [
        {
          "internalType": "address",
          "name": "",
          "type": "address"
        }
      ],
      "stateMutability": "view",
      "type": "function",
      "constant": true
    },
    {
      "inputs": [
        {
          "internalType": "uint256",
          "name": "",
          "type": "uint256"
        }
      ],
      "name": "listings",
      "outputs": [
        {
          "internalType": "address",
          "name": "seller",
          "type": "address"
        },
        {
          "internalType": "uint256",
          "name": "amount",
          "type": "uint256"
        },
        {
          "internalType": "uint256",
          "name": "pricePerCCT",
          "type": "uint256"
        }
      ],
      "stateMutability": "view",
      "type": "function",
      "constant": true
    },
    {
      "inputs": [],
      "name": "mintContract",
      "outputs": [
        {
          "internalType": "contract IMintContract",
          "name": "",
          "type": "address"
        }
      ],
      "stateMutability": "view",
      "type": "function",
      "constant": true
    },
    {
      "inputs": [
        {
          "internalType": "uint256",
          "name": "_amount",
          "type": "uint256"
        },
        {
          "internalType": "uint256",
          "name": "_price",
          "type": "uint256"
        }
      ],
      "name": "listTokens",
      "outputs": [],
      "stateMutability": "nonpayable",
      "type": "function"
    },
    {
      "inputs": [],
      "name": "fetchListings",
      "outputs": [
        {
          "components": [
            {
              "internalType": "address",
              "name": "seller",
              "type": "address"
            },
            {
              "internalType": "uint256",
              "name": "amount",
              "type": "uint256"
            },
            {
              "internalType": "uint256",
              "name": "pricePerCCT",
              "type": "uint256"
            }
          ],
          "internalType": "struct AMM.Listing[]",
          "name": "",
          "type": "tuple[]"
        }
      ],
      "stateMutability": "view",
      "type": "function",
      "constant": true
    },
    {
      "inputs": [
        {
          "internalType": "uint256",
          "name": "index",
          "type": "uint256"
        },
        {
          "internalType": "uint256",
          "name": "_amount",
          "type": "uint256"
        }
      ],
      "name": "buyTokens",
      "outputs": [],
      "stateMutability": "payable",
      "type": "function",
      "payable": true
    },
    {
      "inputs": [
        {
          "internalType": "uint256",
          "name": "_amount",
          "type": "uint256"
        }
      ],
      "name": "burnTokens",
      "outputs": [],
      "stateMutability": "nonpayable",
      "type": "function"
    }
  ],
  "bytecode": "0x6080604052604051610d4f380380610d4f83398181016040528101906100259190610178565b5f73ffffffffffffffffffffffffffffffffffffffff168273ffffffffffffffffffffffffffffffffffffffff1603610093576040517f08c379a000000000000000000000000000000000000000000000000000000000815260040161008a90610210565b60405180910390fd5b8160025f6101000a81548173ffffffffffffffffffffffffffffffffffffffff021916908373ffffffffffffffffffffffffffffffffffffffff1602179055508060015f6101000a81548173ffffffffffffffffffffffffffffffffffffffff021916908373ffffffffffffffffffffffffffffffffffffffff160217905550505061022e565b5f5ffd5b5f73ffffffffffffffffffffffffffffffffffffffff82169050919050565b5f6101478261011e565b9050919050565b6101578161013d565b8114610161575f5ffd5b50565b5f815190506101728161014e565b92915050565b5f5f6040838503121561018e5761018d61011a565b5b5f61019b85828601610164565b92505060206101ac85828601610164565b9150509250929050565b5f82825260208201905092915050565b7f56616c696461746f7220616464726573732063616e6e6f74206265207a65726f5f82015250565b5f6101fa6020836101b6565b9150610205826101c6565b602082019050919050565b5f6020820190508181035f830152610227816101ee565b9050919050565b610b148061023b5f395ff3fe60806040526004361061006f575f3560e01c8063b4fd72961161004d578063b4fd7296146100e1578063d0b6b6db1461010b578063de74e57b14610135578063e30e5ae9146101735761006f565b80636d1b229d146100735780637975ce281461009b578063a80f99ec146100b7575b5f5ffd5b34801561007e575f5ffd5b50610099600480360381019061009491906106b8565b61019b565b005b6100b560048036038101906100b091906106e3565b61023f565b005b3480156100c2575f5ffd5b506100cb6103b0565b6040516100d89190610857565b60405180910390f35b3480156100ec575f5ffd5b506100f5610473565b6040516101029190610886565b60405180910390f35b348015610116575f5ffd5b5061011f610498565b60405161012c91906108fa565b60405180910390f35b348015610140575f5ffd5b5061015b600480360381019061015691906106b8565b6104bd565b60405161016a93929190610922565b60405180910390f35b34801561017e575f5ffd5b50610199600480360381019061019491906106e3565b610510565b005b5f670de0b6b3a7640000826101b09190610984565b905060015f9054906101000a900473ffffffffffffffffffffffffffffffffffffffff1673ffffffffffffffffffffffffffffffffffffffff166379cc679033836040518363ffffffff1660e01b815260040161020e9291906109c5565b5f604051808303815f87803b158015610225575f5ffd5b505af1158015610237573d5f5f3e3d5ffd5b505050505050565b5f670de0b6b3a7640000826102549190610984565b90505f5f848154811061026a576102696109ec565b5b905f5260205f209060030201905060015f9054906101000a900473ffffffffffffffffffffffffffffffffffffffff1673ffffffffffffffffffffffffffffffffffffffff166323b872dd3033856040518463ffffffff1660e01b81526004016102d693929190610a19565b5f604051808303815f87803b1580156102ed575f5ffd5b505af11580156102ff573d5f5f3e3d5ffd5b5050505081816001015f8282546103169190610a4e565b925050819055505f670de0b6b3a76400008260020154846103379190610984565b6103419190610aae565b9050815f015f9054906101000a900473ffffffffffffffffffffffffffffffffffffffff1673ffffffffffffffffffffffffffffffffffffffff166108fc8290811502906040515f60405180830381858888f193505050501580156103a8573d5f5f3e3d5ffd5b505050505050565b60605f805480602002602001604051908101604052809291908181526020015f905b8282101561046a578382905f5260205f2090600302016040518060600160405290815f82015f9054906101000a900473ffffffffffffffffffffffffffffffffffffffff1673ffffffffffffffffffffffffffffffffffffffff1673ffffffffffffffffffffffffffffffffffffffff16815260200160018201548152602001600282015481525050815260200190600101906103d2565b50505050905090565b60025f9054906101000a900473ffffffffffffffffffffffffffffffffffffffff1681565b60015f9054906101000a900473ffffffffffffffffffffffffffffffffffffffff1681565b5f81815481106104cb575f80fd5b905f5260205f2090600302015f91509050805f015f9054906101000a900473ffffffffffffffffffffffffffffffffffffffff16908060010154908060020154905083565b5f670de0b6b3a7640000836105259190610984565b90505f670de0b6b3a76400008361053c9190610984565b905060015f9054906101000a900473ffffffffffffffffffffffffffffffffffffffff1673ffffffffffffffffffffffffffffffffffffffff166323b872dd3330856040518463ffffffff1660e01b815260040161059c93929190610a19565b5f604051808303815f87803b1580156105b3575f5ffd5b505af11580156105c5573d5f5f3e3d5ffd5b505050505f60405180606001604052803373ffffffffffffffffffffffffffffffffffffffff16815260200184815260200183815250908060018154018082558091505060019003905f5260205f2090600302015f909190919091505f820151815f015f6101000a81548173ffffffffffffffffffffffffffffffffffffffff021916908373ffffffffffffffffffffffffffffffffffffffff1602179055506020820151816001015560408201518160020155505050505050565b5f5ffd5b5f819050919050565b61069781610685565b81146106a1575f5ffd5b50565b5f813590506106b28161068e565b92915050565b5f602082840312156106cd576106cc610681565b5b5f6106da848285016106a4565b91505092915050565b5f5f604083850312156106f9576106f8610681565b5b5f610706858286016106a4565b9250506020610717858286016106a4565b9150509250929050565b5f81519050919050565b5f82825260208201905092915050565b5f819050602082019050919050565b5f73ffffffffffffffffffffffffffffffffffffffff82169050919050565b5f6107738261074a565b9050919050565b61078381610769565b82525050565b61079281610685565b82525050565b606082015f8201516107ac5f85018261077a565b5060208201516107bf6020850182610789565b5060408201516107d26040850182610789565b50505050565b5f6107e38383610798565b60608301905092915050565b5f602082019050919050565b5f61080582610721565b61080f818561072b565b935061081a8361073b565b805f5b8381101561084a57815161083188826107d8565b975061083c836107ef565b92505060018101905061081d565b5085935050505092915050565b5f6020820190508181035f83015261086f81846107fb565b905092915050565b61088081610769565b82525050565b5f6020820190506108995f830184610877565b92915050565b5f819050919050565b5f6108c26108bd6108b88461074a565b61089f565b61074a565b9050919050565b5f6108d3826108a8565b9050919050565b5f6108e4826108c9565b9050919050565b6108f4816108da565b82525050565b5f60208201905061090d5f8301846108eb565b92915050565b61091c81610685565b82525050565b5f6060820190506109355f830186610877565b6109426020830185610913565b61094f6040830184610913565b949350505050565b7f4e487b71000000000000000000000000000000000000000000000000000000005f52601160045260245ffd5b5f61098e82610685565b915061099983610685565b92508282026109a781610685565b915082820484148315176109be576109bd610957565b5b5092915050565b5f6040820190506109d85f830185610877565b6109e56020830184610913565b9392505050565b7f4e487b71000000000000000000000000000000000000000000000000000000005f52603260045260245ffd5b5f606082019050610a2c5f830186610877565b610a396020830185610877565b610a466040830184610913565b949350505050565b5f610a5882610685565b9150610a6383610685565b9250828203905081811115610a7b57610a7a610957565b5b92915050565b7f4e487b71000000000000000000000000000000000000000000000000000000005f52601260045260245ffd5b5f610ab882610685565b9150610ac383610685565b925082610ad357610ad2610a81565b5b82820490509291505056fea2646970667358221220dac25e60a1732817a683586b9cea67b0f94adbe8b2725388ec1fd88a0a8d4bc564736f6c634300081d0033",
  "immutableReferences": {},
  "source": "// SPDX-License-Identifier: MIT\r\npragma solidity ^0.8.19;\r\n\r\ninterface IMintContract {\r\n    function transferFrom(address from, address to, uint256 amount) external;\r\n    function burnFrom(address from, uint256 amount) external;\r\n}\r\n\r\ncontract AMM{\r\n    struct Listing{\r\n        address seller;\r\n        uint256 amount;\r\n        uint256 pricePerCCT;\r\n    }\r\n\r\n    Listing[] public listings ;\r\n    IMintContract public mintContract;\r\n    uint256 constant CCT_DECIMALS = 10**18; // Scaling factor\r\n\r\n    address public consumer;\r\n\r\n    constructor(address _consumer,address _mintContract) payable{\r\n        require(_consumer != address(0), \"Validator address cannot be zero\");\r\n        consumer = _consumer;\r\n        mintContract = IMintContract(_mintContract);\r\n    }\r\n\r\n    function listTokens(uint256 _amount, uint256 _price) external {\r\n        uint256 scaledAmount = _amount * CCT_DECIMALS; // Convert to full units\r\n        uint256 scaledPrice = _price * 1 ether;\r\n\r\n        mintContract.transferFrom(msg.sender, address(this), scaledAmount);\r\n\r\n        // Check if seller already has a listing\r\n        // bool updated = false;\r\n        // for (uint256 i = 0; i < listings.length; i++) {\r\n        //     if (listings[i].seller == msg.sender) {\r\n        //         listings[i].amount += scaledAmount;\r\n        //         listings[i].pricePerCCT = scaledPrice;\r\n        //         updated = true;\r\n        //         break;\r\n        //     }\r\n        // }\r\n\r\n        //if(!updated){\r\n            listings.push(Listing({\r\n                seller: msg.sender,\r\n                amount: scaledAmount,\r\n                pricePerCCT: scaledPrice\r\n            }));\r\n        //}\r\n    }\r\n\r\n    function fetchListings() external view returns (Listing[] memory){\r\n        return listings;\r\n    }\r\n\r\n    function buyTokens(uint256 index, uint256 _amount) external payable{\r\n        uint256 scaledBuyAmount=_amount*CCT_DECIMALS;\r\n\r\n        //find the listing //issue part\r\n        // uint256 listingIdx=type(uint256).max;\r\n        // for(uint256 i=0;i<listings.length;i++){\r\n        //     if(listings[i].seller== _gen){\r\n        //         listingIdx=i;\r\n        //         break;\r\n        //     }\r\n        // }\r\n\r\n        //check if the seller has enough cct\r\n        Listing storage listing = listings[index];\r\n        //require(listing.amount>=scaledBuyAmount,\"Seller does not have enough CCT\");\r\n        \r\n        //transfer cct\r\n        mintContract.transferFrom(address(this),msg.sender,scaledBuyAmount);\r\n        listing.amount-=scaledBuyAmount;\r\n\r\n        //send eth\r\n        uint256 totalETH=(scaledBuyAmount * listing.pricePerCCT)/CCT_DECIMALS;\r\n        payable(listing.seller).transfer(totalETH);\r\n    }\r\n\r\n    //retire tokens\r\n    function burnTokens(uint256 _amount) public{\r\n        uint256 scaledAmount = _amount * CCT_DECIMALS;\r\n        mintContract.burnFrom(msg.sender,scaledAmount);\r\n    }\r\n}",
  "sourcePath": "D:\\carbon-credit-ecosystem\\contracts\\AMM.sol",
  "compiler": {
    "name": "solc",
    "version": "0.8.29+commit.ab55807c.Emscripten.clang"
  },
  "schemaVersion": "3.4.16",
  "updatedAt": "2025-05-01T20:16:54.940Z",
  "networkType": "ethereum",
  "devdoc": {
    "kind": "dev",
    "methods": {},
    "version": 1
  },
  "userdoc": {
    "kind": "user",
    "methods": {},
    "version": 1
  }
}