{
  "contractName": "AMM",
  "abi": [
    {
      "inputs": [
        {
          "internalType": "address",
          "name": "_mintContract",
          "type": "address"
        }
      ],
      "stateMutability": "nonpayable",
      "type": "constructor"
    },
    {
      "inputs": [
        {
          "internalType": "uint256",
          "name": "",
          "type": "uint256"
        }
      ],
      "name": "listings",
      "outputs": [
        {
          "internalType": "address",
          "name": "seller",
          "type": "address"
        },
        {
          "internalType": "uint256",
          "name": "amount",
          "type": "uint256"
        },
        {
          "internalType": "uint256",
          "name": "pricePerCCT",
          "type": "uint256"
        },
        {
          "internalType": "bool",
          "name": "active",
          "type": "bool"
        }
      ],
      "stateMutability": "view",
      "type": "function",
      "constant": true
    },
    {
      "inputs": [],
      "name": "mintContract",
      "outputs": [
        {
          "internalType": "contract IMintContract",
          "name": "",
          "type": "address"
        }
      ],
      "stateMutability": "view",
      "type": "function",
      "constant": true
    },
    {
      "inputs": [
        {
          "internalType": "uint256",
          "name": "_amount",
          "type": "uint256"
        },
        {
          "internalType": "uint256",
          "name": "_price",
          "type": "uint256"
        }
      ],
      "name": "listTokens",
      "outputs": [],
      "stateMutability": "nonpayable",
      "type": "function"
    }
  ],
  "bytecode": "0x608060405234801561000f575f5ffd5b506040516106c53803806106c5833981810160405281019061003191906100d5565b8060015f6101000a81548173ffffffffffffffffffffffffffffffffffffffff021916908373ffffffffffffffffffffffffffffffffffffffff16021790555050610100565b5f5ffd5b5f73ffffffffffffffffffffffffffffffffffffffff82169050919050565b5f6100a48261007b565b9050919050565b6100b48161009a565b81146100be575f5ffd5b50565b5f815190506100cf816100ab565b92915050565b5f602082840312156100ea576100e9610077565b5b5f6100f7848285016100c1565b91505092915050565b6105b88061010d5f395ff3fe608060405234801561000f575f5ffd5b506004361061003f575f3560e01c8063d0b6b6db14610043578063de74e57b14610061578063e30e5ae914610094575b5f5ffd5b61004b6100b0565b604051610058919061036d565b60405180910390f35b61007b600480360381019061007691906103bd565b6100d5565b60405161008b9493929190610431565b60405180910390f35b6100ae60048036038101906100a99190610474565b61013a565b005b60015f9054906101000a900473ffffffffffffffffffffffffffffffffffffffff1681565b5f81815481106100e3575f80fd5b905f5260205f2090600402015f91509050805f015f9054906101000a900473ffffffffffffffffffffffffffffffffffffffff1690806001015490806002015490806003015f9054906101000a900460ff16905084565b8160015f9054906101000a900473ffffffffffffffffffffffffffffffffffffffff1673ffffffffffffffffffffffffffffffffffffffff166370a08231336040518263ffffffff1660e01b815260040161019591906104b2565b602060405180830381865afa1580156101b0573d5f5f3e3d5ffd5b505050506040513d601f19601f820116820180604052508101906101d491906104df565b1015610215576040517f08c379a000000000000000000000000000000000000000000000000000000000815260040161020c90610564565b60405180910390fd5b5f60405180608001604052803373ffffffffffffffffffffffffffffffffffffffff16815260200184815260200183815260200160011515815250908060018154018082558091505060019003905f5260205f2090600402015f909190919091505f820151815f015f6101000a81548173ffffffffffffffffffffffffffffffffffffffff021916908373ffffffffffffffffffffffffffffffffffffffff16021790555060208201518160010155604082015181600201556060820151816003015f6101000a81548160ff02191690831515021790555050505050565b5f73ffffffffffffffffffffffffffffffffffffffff82169050919050565b5f819050919050565b5f61033561033061032b846102f3565b610312565b6102f3565b9050919050565b5f6103468261031b565b9050919050565b5f6103578261033c565b9050919050565b6103678161034d565b82525050565b5f6020820190506103805f83018461035e565b92915050565b5f5ffd5b5f819050919050565b61039c8161038a565b81146103a6575f5ffd5b50565b5f813590506103b781610393565b92915050565b5f602082840312156103d2576103d1610386565b5b5f6103df848285016103a9565b91505092915050565b5f6103f2826102f3565b9050919050565b610402816103e8565b82525050565b6104118161038a565b82525050565b5f8115159050919050565b61042b81610417565b82525050565b5f6080820190506104445f8301876103f9565b6104516020830186610408565b61045e6040830185610408565b61046b6060830184610422565b95945050505050565b5f5f6040838503121561048a57610489610386565b5b5f610497858286016103a9565b92505060206104a8858286016103a9565b9150509250929050565b5f6020820190506104c55f8301846103f9565b92915050565b5f815190506104d981610393565b92915050565b5f602082840312156104f4576104f3610386565b5b5f610501848285016104cb565b91505092915050565b5f82825260208201905092915050565b7f4e6f7420656e6f7567682043435420746f6b656e7300000000000000000000005f82015250565b5f61054e60158361050a565b91506105598261051a565b602082019050919050565b5f6020820190508181035f83015261057b81610542565b905091905056fea2646970667358221220ce904a1c1746a892a26063b2f2bea1ea337f4c4c4cceb259bf7ed2e53c071b0c64736f6c634300081d0033",
  "immutableReferences": {},
  "source": "// SPDX-License-Identifier: MIT\r\npragma solidity ^0.8.19;\r\n\r\ninterface IMintContract{\r\n    function balanceOf(address account) external view returns (uint256);\r\n}\r\n\r\ncontract AMM{\r\n    struct Listing{\r\n        address seller;\r\n        uint256 amount;\r\n        uint256 pricePerCCT;\r\n        bool active;\r\n    }\r\n\r\n    Listing[] public listings ;\r\n    IMintContract public mintContract;\r\n\r\n    constructor(address _mintContract){\r\n        mintContract=IMintContract(_mintContract);\r\n    }\r\n    \r\n    function listTokens(uint256 _amount, uint256 _price) external {\r\n        require(mintContract.balanceOf(msg.sender) >= _amount, \"Not enough CCT tokens\");\r\n\r\n        listings.push(Listing({\r\n            seller: msg.sender,\r\n            amount: _amount,\r\n            pricePerCCT: _price,\r\n            active: true\r\n        }));\r\n    }\r\n}",
  "sourcePath": "D:\\carbon-credit-ecosystem\\contracts\\AMM.sol",
  "compiler": {
    "name": "solc",
    "version": "0.8.29+commit.ab55807c.Emscripten.clang"
  },
  "schemaVersion": "3.4.16",
  "updatedAt": "2025-03-19T19:52:25.436Z",
  "networkType": "ethereum",
  "devdoc": {
    "kind": "dev",
    "methods": {},
    "version": 1
  },
  "userdoc": {
    "kind": "user",
    "methods": {},
    "version": 1
  }
}