{
  "contractName": "AMM",
  "abi": [
    {
      "inputs": [
        {
          "internalType": "address",
          "name": "_consumer",
          "type": "address"
        },
        {
          "internalType": "address",
          "name": "_mintContract",
          "type": "address"
        }
      ],
      "stateMutability": "payable",
      "type": "constructor",
      "payable": true
    },
    {
      "inputs": [],
      "name": "consumer",
      "outputs": [
        {
          "internalType": "address",
          "name": "",
          "type": "address"
        }
      ],
      "stateMutability": "view",
      "type": "function",
      "constant": true
    },
    {
      "inputs": [
        {
          "internalType": "uint256",
          "name": "",
          "type": "uint256"
        }
      ],
      "name": "listings",
      "outputs": [
        {
          "internalType": "address",
          "name": "seller",
          "type": "address"
        },
        {
          "internalType": "uint256",
          "name": "amount",
          "type": "uint256"
        },
        {
          "internalType": "uint256",
          "name": "pricePerCCT",
          "type": "uint256"
        }
      ],
      "stateMutability": "view",
      "type": "function",
      "constant": true
    },
    {
      "inputs": [],
      "name": "mintContract",
      "outputs": [
        {
          "internalType": "contract IMintContract",
          "name": "",
          "type": "address"
        }
      ],
      "stateMutability": "view",
      "type": "function",
      "constant": true
    },
    {
      "inputs": [
        {
          "internalType": "uint256",
          "name": "_amount",
          "type": "uint256"
        },
        {
          "internalType": "uint256",
          "name": "_price",
          "type": "uint256"
        }
      ],
      "name": "listTokens",
      "outputs": [],
      "stateMutability": "nonpayable",
      "type": "function"
    },
    {
      "inputs": [],
      "name": "fetchListings",
      "outputs": [
        {
          "components": [
            {
              "internalType": "address",
              "name": "seller",
              "type": "address"
            },
            {
              "internalType": "uint256",
              "name": "amount",
              "type": "uint256"
            },
            {
              "internalType": "uint256",
              "name": "pricePerCCT",
              "type": "uint256"
            }
          ],
          "internalType": "struct AMM.Listing[]",
          "name": "",
          "type": "tuple[]"
        }
      ],
      "stateMutability": "view",
      "type": "function",
      "constant": true
    },
    {
      "inputs": [
        {
          "internalType": "address",
          "name": "_gen",
          "type": "address"
        },
        {
          "internalType": "uint256",
          "name": "_amount",
          "type": "uint256"
        }
      ],
      "name": "buyTokens",
      "outputs": [],
      "stateMutability": "payable",
      "type": "function",
      "payable": true
    }
  ],
  "bytecode": "0x6080604052604051610d46380380610d4683398181016040528101906100259190610178565b5f73ffffffffffffffffffffffffffffffffffffffff168273ffffffffffffffffffffffffffffffffffffffff1603610093576040517f08c379a000000000000000000000000000000000000000000000000000000000815260040161008a90610210565b60405180910390fd5b8160025f6101000a81548173ffffffffffffffffffffffffffffffffffffffff021916908373ffffffffffffffffffffffffffffffffffffffff1602179055508060015f6101000a81548173ffffffffffffffffffffffffffffffffffffffff021916908373ffffffffffffffffffffffffffffffffffffffff160217905550505061022e565b5f5ffd5b5f73ffffffffffffffffffffffffffffffffffffffff82169050919050565b5f6101478261011e565b9050919050565b6101578161013d565b8114610161575f5ffd5b50565b5f815190506101728161014e565b92915050565b5f5f6040838503121561018e5761018d61011a565b5b5f61019b85828601610164565b92505060206101ac85828601610164565b9150509250929050565b5f82825260208201905092915050565b7f56616c696461746f7220616464726573732063616e6e6f74206265207a65726f5f82015250565b5f6101fa6020836101b6565b9150610205826101c6565b602082019050919050565b5f6020820190508181035f830152610227816101ee565b9050919050565b610b0b8061023b5f395ff3fe608060405260043610610054575f3560e01c80630752881a14610058578063a80f99ec14610074578063b4fd72961461009e578063d0b6b6db146100c8578063de74e57b146100f2578063e30e5ae914610130575b5f5ffd5b610072600480360381019061006d91906106c8565b610158565b005b34801561007f575f5ffd5b50610088610366565b604051610095919061080c565b60405180910390f35b3480156100a9575f5ffd5b506100b2610429565b6040516100bf919061083b565b60405180910390f35b3480156100d3575f5ffd5b506100dc61044e565b6040516100e991906108af565b60405180910390f35b3480156100fd575f5ffd5b50610118600480360381019061011391906108c8565b610473565b60405161012793929190610902565b60405180910390f35b34801561013b575f5ffd5b5061015660048036038101906101519190610937565b6104c6565b005b5f670de0b6b3a76400008261016d91906109a2565b90505f7fffffffffffffffffffffffffffffffffffffffffffffffffffffffffffffffff90505f5f90505b5f8054905081101561022c578473ffffffffffffffffffffffffffffffffffffffff165f82815481106101ce576101cd6109e3565b5b905f5260205f2090600302015f015f9054906101000a900473ffffffffffffffffffffffffffffffffffffffff1673ffffffffffffffffffffffffffffffffffffffff160361021f5780915061022c565b8080600101915050610198565b505f5f8281548110610241576102406109e3565b5b905f5260205f209060030201905060015f9054906101000a900473ffffffffffffffffffffffffffffffffffffffff1673ffffffffffffffffffffffffffffffffffffffff166323b872dd3033866040518463ffffffff1660e01b81526004016102ad93929190610a10565b5f604051808303815f87803b1580156102c4575f5ffd5b505af11580156102d6573d5f5f3e3d5ffd5b5050505082816001015f8282546102ed9190610a45565b925050819055505f670de0b6b3a764000082600201548561030e91906109a2565b6103189190610aa5565b90508573ffffffffffffffffffffffffffffffffffffffff166108fc8290811502906040515f60405180830381858888f1935050505015801561035d573d5f5f3e3d5ffd5b50505050505050565b60605f805480602002602001604051908101604052809291908181526020015f905b82821015610420578382905f5260205f2090600302016040518060600160405290815f82015f9054906101000a900473ffffffffffffffffffffffffffffffffffffffff1673ffffffffffffffffffffffffffffffffffffffff1673ffffffffffffffffffffffffffffffffffffffff1681526020016001820154815260200160028201548152505081526020019060010190610388565b50505050905090565b60025f9054906101000a900473ffffffffffffffffffffffffffffffffffffffff1681565b60015f9054906101000a900473ffffffffffffffffffffffffffffffffffffffff1681565b5f8181548110610481575f80fd5b905f5260205f2090600302015f91509050805f015f9054906101000a900473ffffffffffffffffffffffffffffffffffffffff16908060010154908060020154905083565b5f670de0b6b3a7640000836104db91906109a2565b90505f670de0b6b3a7640000836104f291906109a2565b905060015f9054906101000a900473ffffffffffffffffffffffffffffffffffffffff1673ffffffffffffffffffffffffffffffffffffffff166323b872dd3330856040518463ffffffff1660e01b815260040161055293929190610a10565b5f604051808303815f87803b158015610569575f5ffd5b505af115801561057b573d5f5f3e3d5ffd5b505050505f60405180606001604052803373ffffffffffffffffffffffffffffffffffffffff16815260200184815260200183815250908060018154018082558091505060019003905f5260205f2090600302015f909190919091505f820151815f015f6101000a81548173ffffffffffffffffffffffffffffffffffffffff021916908373ffffffffffffffffffffffffffffffffffffffff1602179055506020820151816001015560408201518160020155505050505050565b5f5ffd5b5f73ffffffffffffffffffffffffffffffffffffffff82169050919050565b5f6106648261063b565b9050919050565b6106748161065a565b811461067e575f5ffd5b50565b5f8135905061068f8161066b565b92915050565b5f819050919050565b6106a781610695565b81146106b1575f5ffd5b50565b5f813590506106c28161069e565b92915050565b5f5f604083850312156106de576106dd610637565b5b5f6106eb85828601610681565b92505060206106fc858286016106b4565b9150509250929050565b5f81519050919050565b5f82825260208201905092915050565b5f819050602082019050919050565b6107388161065a565b82525050565b61074781610695565b82525050565b606082015f8201516107615f85018261072f565b506020820151610774602085018261073e565b506040820151610787604085018261073e565b50505050565b5f610798838361074d565b60608301905092915050565b5f602082019050919050565b5f6107ba82610706565b6107c48185610710565b93506107cf83610720565b805f5b838110156107ff5781516107e6888261078d565b97506107f1836107a4565b9250506001810190506107d2565b5085935050505092915050565b5f6020820190508181035f83015261082481846107b0565b905092915050565b6108358161065a565b82525050565b5f60208201905061084e5f83018461082c565b92915050565b5f819050919050565b5f61087761087261086d8461063b565b610854565b61063b565b9050919050565b5f6108888261085d565b9050919050565b5f6108998261087e565b9050919050565b6108a98161088f565b82525050565b5f6020820190506108c25f8301846108a0565b92915050565b5f602082840312156108dd576108dc610637565b5b5f6108ea848285016106b4565b91505092915050565b6108fc81610695565b82525050565b5f6060820190506109155f83018661082c565b61092260208301856108f3565b61092f60408301846108f3565b949350505050565b5f5f6040838503121561094d5761094c610637565b5b5f61095a858286016106b4565b925050602061096b858286016106b4565b9150509250929050565b7f4e487b71000000000000000000000000000000000000000000000000000000005f52601160045260245ffd5b5f6109ac82610695565b91506109b783610695565b92508282026109c581610695565b915082820484148315176109dc576109db610975565b5b5092915050565b7f4e487b71000000000000000000000000000000000000000000000000000000005f52603260045260245ffd5b5f606082019050610a235f83018661082c565b610a30602083018561082c565b610a3d60408301846108f3565b949350505050565b5f610a4f82610695565b9150610a5a83610695565b9250828203905081811115610a7257610a71610975565b5b92915050565b7f4e487b71000000000000000000000000000000000000000000000000000000005f52601260045260245ffd5b5f610aaf82610695565b9150610aba83610695565b925082610aca57610ac9610a78565b5b82820490509291505056fea2646970667358221220cfb8e4362d4212322d370b123f5f210b3504172a91ded09403cc1adb8c8d160864736f6c634300081d0033",
  "immutableReferences": {},
  "source": "// SPDX-License-Identifier: MIT\r\npragma solidity ^0.8.19;\r\n\r\ninterface IMintContract {\r\n    function transferFrom(address from, address to, uint256 amount) external;\r\n}\r\n\r\ncontract AMM{\r\n    struct Listing{\r\n        address seller;\r\n        uint256 amount;\r\n        uint256 pricePerCCT;\r\n    }\r\n\r\n    Listing[] public listings ;\r\n    IMintContract public mintContract;\r\n    uint256 constant CCT_DECIMALS = 10**18; // Scaling factor\r\n\r\n    address public consumer;\r\n\r\n    constructor(address _consumer,address _mintContract) payable{\r\n        require(_consumer != address(0), \"Validator address cannot be zero\");\r\n        consumer = _consumer;\r\n        mintContract = IMintContract(_mintContract);\r\n    }\r\n\r\n    function listTokens(uint256 _amount, uint256 _price) external {\r\n        uint256 scaledAmount = _amount * CCT_DECIMALS; // Convert to full units\r\n        uint256 scaledPrice = _price * 1 ether;\r\n\r\n        mintContract.transferFrom(msg.sender, address(this), scaledAmount);\r\n\r\n        listings.push(Listing({\r\n            seller: msg.sender,\r\n            amount: scaledAmount,\r\n            pricePerCCT: scaledPrice\r\n        }));\r\n    }\r\n\r\n    function fetchListings() external view returns (Listing[] memory){\r\n        return listings;\r\n    }\r\n\r\n    function buyTokens(address _gen, uint256 _amount) external payable{\r\n        uint256 scaledBuyAmount=_amount*CCT_DECIMALS;\r\n\r\n        //find the listing\r\n        uint256 listingIdx=type(uint256).max;\r\n        for(uint256 i=0;i<listings.length;i++){\r\n            if(listings[i].seller== _gen){\r\n                listingIdx=i;\r\n                break;\r\n            }\r\n        }\r\n\r\n        //check if the seller has enough cct\r\n        Listing storage listing = listings[listingIdx];\r\n        //require(listing.amount>=scaledBuyAmount,\"Seller does not have enough CCT\");\r\n        \r\n        //transfer cct\r\n        mintContract.transferFrom(address(this),msg.sender,scaledBuyAmount);\r\n        listing.amount-=scaledBuyAmount;\r\n\r\n        //send eth\r\n        uint256 totalETH=(scaledBuyAmount * listing.pricePerCCT)/CCT_DECIMALS;\r\n        payable(_gen).transfer(totalETH);\r\n    }\r\n}",
  "sourcePath": "D:\\carbon-credit-ecosystem\\contracts\\AMM.sol",
  "compiler": {
    "name": "solc",
    "version": "0.8.29+commit.ab55807c.Emscripten.clang"
  },
  "schemaVersion": "3.4.16",
  "updatedAt": "2025-03-28T11:33:01.422Z",
  "networkType": "ethereum",
  "devdoc": {
    "kind": "dev",
    "methods": {},
    "version": 1
  },
  "userdoc": {
    "kind": "user",
    "methods": {},
    "version": 1
  }
}