{
  "contractName": "BuyCredits",
  "abi": [
    {
      "inputs": [
        {
          "internalType": "uint256",
          "name": "_tokenPrice",
          "type": "uint256"
        }
      ],
      "stateMutability": "nonpayable",
      "type": "constructor"
    },
    {
      "anonymous": false,
      "inputs": [
        {
          "indexed": true,
          "internalType": "address",
          "name": "to",
          "type": "address"
        },
        {
          "indexed": false,
          "internalType": "uint256",
          "name": "amount",
          "type": "uint256"
        }
      ],
      "name": "TokensMinted",
      "type": "event"
    },
    {
      "anonymous": false,
      "inputs": [
        {
          "indexed": true,
          "internalType": "address",
          "name": "buyer",
          "type": "address"
        },
        {
          "indexed": false,
          "internalType": "uint256",
          "name": "amount",
          "type": "uint256"
        },
        {
          "indexed": false,
          "internalType": "uint256",
          "name": "totalCost",
          "type": "uint256"
        }
      ],
      "name": "TokensPurchased",
      "type": "event"
    },
    {
      "inputs": [
        {
          "internalType": "address",
          "name": "",
          "type": "address"
        }
      ],
      "name": "balances",
      "outputs": [
        {
          "internalType": "uint256",
          "name": "",
          "type": "uint256"
        }
      ],
      "stateMutability": "view",
      "type": "function"
    },
    {
      "inputs": [],
      "name": "generator",
      "outputs": [
        {
          "internalType": "address",
          "name": "",
          "type": "address"
        }
      ],
      "stateMutability": "view",
      "type": "function"
    },
    {
      "inputs": [],
      "name": "tokenPrice",
      "outputs": [
        {
          "internalType": "uint256",
          "name": "",
          "type": "uint256"
        }
      ],
      "stateMutability": "view",
      "type": "function"
    },
    {
      "inputs": [
        {
          "internalType": "address",
          "name": "to",
          "type": "address"
        },
        {
          "internalType": "uint256",
          "name": "amount",
          "type": "uint256"
        }
      ],
      "name": "mintTokens",
      "outputs": [],
      "stateMutability": "nonpayable",
      "type": "function"
    },
    {
      "inputs": [],
      "name": "buyTokens",
      "outputs": [],
      "stateMutability": "payable",
      "type": "function"
    },
    {
      "inputs": [],
      "name": "withdraw",
      "outputs": [],
      "stateMutability": "nonpayable",
      "type": "function"
    },
    {
      "inputs": [
        {
          "internalType": "address",
          "name": "account",
          "type": "address"
        }
      ],
      "name": "getTokenBalance",
      "outputs": [
        {
          "internalType": "uint256",
          "name": "",
          "type": "uint256"
        }
      ],
      "stateMutability": "view",
      "type": "function"
    }
  ],
  "bytecode": "0x6080604052348015600e575f5ffd5b50604051610acd380380610acd8339818101604052810190602e919060ab565b335f5f6101000a81548173ffffffffffffffffffffffffffffffffffffffff021916908373ffffffffffffffffffffffffffffffffffffffff160217905550806001819055505060d1565b5f5ffd5b5f819050919050565b608d81607d565b81146096575f5ffd5b50565b5f8151905060a5816086565b92915050565b5f6020828403121560bd5760bc6079565b5b5f60c8848285016099565b91505092915050565b6109ef806100de5f395ff3fe60806040526004361061006f575f3560e01c80637afa1eed1161004d5780637afa1eed146101015780637ff9b5961461012b578063d0febe4c14610155578063f0dda65c1461015f5761006f565b806327e235e3146100735780633aecd0e3146100af5780633ccfd60b146100eb575b5f5ffd5b34801561007e575f5ffd5b5061009960048036038101906100949190610613565b610187565b6040516100a69190610656565b60405180910390f35b3480156100ba575f5ffd5b506100d560048036038101906100d09190610613565b61019c565b6040516100e29190610656565b60405180910390f35b3480156100f6575f5ffd5b506100ff6101e2565b005b34801561010c575f5ffd5b5061011561031d565b604051610122919061067e565b60405180910390f35b348015610136575f5ffd5b5061013f610341565b60405161014c9190610656565b60405180910390f35b61015d610347565b005b34801561016a575f5ffd5b50610185600480360381019061018091906106c1565b610482565b005b6002602052805f5260405f205f915090505481565b5f60025f8373ffffffffffffffffffffffffffffffffffffffff1673ffffffffffffffffffffffffffffffffffffffff1681526020019081526020015f20549050919050565b5f5f9054906101000a900473ffffffffffffffffffffffffffffffffffffffff1673ffffffffffffffffffffffffffffffffffffffff163373ffffffffffffffffffffffffffffffffffffffff1614610270576040517f08c379a00000000000000000000000000000000000000000000000000000000081526004016102679061077f565b60405180910390fd5b5f4790505f81116102b6576040517f08c379a00000000000000000000000000000000000000000000000000000000081526004016102ad906107e7565b60405180910390fd5b5f5f9054906101000a900473ffffffffffffffffffffffffffffffffffffffff1673ffffffffffffffffffffffffffffffffffffffff166108fc8290811502906040515f60405180830381858888f19350505050158015610319573d5f5f3e3d5ffd5b5050565b5f5f9054906101000a900473ffffffffffffffffffffffffffffffffffffffff1681565b60015481565b5f3411610389576040517f08c379a00000000000000000000000000000000000000000000000000000000081526004016103809061084f565b60405180910390fd5b5f6001543461039891906108c7565b90505f81116103dc576040517f08c379a00000000000000000000000000000000000000000000000000000000081526004016103d390610941565b60405180910390fd5b8060025f3373ffffffffffffffffffffffffffffffffffffffff1673ffffffffffffffffffffffffffffffffffffffff1681526020019081526020015f205f828254610428919061095f565b925050819055503373ffffffffffffffffffffffffffffffffffffffff167f8fafebcaf9d154343dad25669bfa277f4fbacd7ac6b0c4fed522580e040a0f338234604051610477929190610992565b60405180910390a250565b5f5f9054906101000a900473ffffffffffffffffffffffffffffffffffffffff1673ffffffffffffffffffffffffffffffffffffffff163373ffffffffffffffffffffffffffffffffffffffff1614610510576040517f08c379a00000000000000000000000000000000000000000000000000000000081526004016105079061077f565b60405180910390fd5b8060025f8473ffffffffffffffffffffffffffffffffffffffff1673ffffffffffffffffffffffffffffffffffffffff1681526020019081526020015f205f82825461055c919061095f565b925050819055508173ffffffffffffffffffffffffffffffffffffffff167f3f2c9d57c068687834f0de942a9babb9e5acab57d516d3480a3c16ee165a4273826040516105a99190610656565b60405180910390a25050565b5f5ffd5b5f73ffffffffffffffffffffffffffffffffffffffff82169050919050565b5f6105e2826105b9565b9050919050565b6105f2816105d8565b81146105fc575f5ffd5b50565b5f8135905061060d816105e9565b92915050565b5f60208284031215610628576106276105b5565b5b5f610635848285016105ff565b91505092915050565b5f819050919050565b6106508161063e565b82525050565b5f6020820190506106695f830184610647565b92915050565b610678816105d8565b82525050565b5f6020820190506106915f83018461066f565b92915050565b6106a08161063e565b81146106aa575f5ffd5b50565b5f813590506106bb81610697565b92915050565b5f5f604083850312156106d7576106d66105b5565b5b5f6106e4858286016105ff565b92505060206106f5858286016106ad565b9150509250929050565b5f82825260208201905092915050565b7f4f6e6c792067656e657261746f722063616e20706572666f726d2074686973205f8201527f616374696f6e0000000000000000000000000000000000000000000000000000602082015250565b5f6107696026836106ff565b91506107748261070f565b604082019050919050565b5f6020820190508181035f8301526107968161075d565b9050919050565b7f4e6f2045544820617661696c61626c6520746f207769746864726177000000005f82015250565b5f6107d1601c836106ff565b91506107dc8261079d565b602082019050919050565b5f6020820190508181035f8301526107fe816107c5565b9050919050565b7f53656e642045544820746f20707572636861736520746f6b656e7300000000005f82015250565b5f610839601b836106ff565b915061084482610805565b602082019050919050565b5f6020820190508181035f8301526108668161082d565b9050919050565b7f4e487b71000000000000000000000000000000000000000000000000000000005f52601260045260245ffd5b7f4e487b71000000000000000000000000000000000000000000000000000000005f52601160045260245ffd5b5f6108d18261063e565b91506108dc8361063e565b9250826108ec576108eb61086d565b5b828204905092915050565b7f496e73756666696369656e742045544820746f2062757920746f6b656e7300005f82015250565b5f61092b601e836106ff565b9150610936826108f7565b602082019050919050565b5f6020820190508181035f8301526109588161091f565b9050919050565b5f6109698261063e565b91506109748361063e565b925082820190508082111561098c5761098b61089a565b5b92915050565b5f6040820190506109a55f830185610647565b6109b26020830184610647565b939250505056fea2646970667358221220e2a531f04617ab90f7a12e0b8b7be572a2ab740a48045952c0a59ec23b93e97464736f6c634300081c0033",
  "immutableReferences": {},
  "source": "// SPDX-License-Identifier: MIT\r\npragma solidity ^0.8.0;\r\n\r\ncontract BuyCredits {\r\n    // Define state variables\r\n    address public generator; // Address of the token generator\r\n    uint256 public tokenPrice; // Price of 1 token in wei\r\n    mapping(address => uint256) public balances; // Balances of tokens for each consumer\r\n\r\n    // Events\r\n    event TokensMinted(address indexed to, uint256 amount);\r\n    event TokensPurchased(address indexed buyer, uint256 amount, uint256 totalCost);\r\n\r\n    // Constructor to initialize generator and token price\r\n    constructor(uint256 _tokenPrice) {\r\n        generator = msg.sender; // Set the generator as the contract deployer\r\n        tokenPrice = _tokenPrice; // Set the price of each token\r\n    }\r\n\r\n    // Modifier to restrict access to the generator\r\n    modifier onlyGenerator() {\r\n        require(msg.sender == generator, \"Only generator can perform this action\");\r\n        _;\r\n    }\r\n\r\n    // Mint new tokens (can only be called by the generator)\r\n    function mintTokens(address to, uint256 amount) public onlyGenerator {\r\n        balances[to] += amount; // Increase token balance of the recipient\r\n        emit TokensMinted(to, amount); // Emit the minting event\r\n    }\r\n\r\n    // Purchase tokens (called by consumers)\r\n    function buyTokens() public payable {\r\n        require(msg.value > 0, \"Send ETH to purchase tokens\");\r\n\r\n        uint256 tokensToBuy = msg.value / tokenPrice; // Calculate the number of tokens to be purchased\r\n        require(tokensToBuy > 0, \"Insufficient ETH to buy tokens\");\r\n\r\n        balances[msg.sender] += tokensToBuy; // Add tokens to buyer's balance\r\n        emit TokensPurchased(msg.sender, tokensToBuy, msg.value); // Emit the purchase event\r\n    }\r\n\r\n    // Withdraw collected ETH (can only be called by the generator)\r\n    function withdraw() public onlyGenerator {\r\n        uint256 balance = address(this).balance;\r\n        require(balance > 0, \"No ETH available to withdraw\");\r\n\r\n        payable(generator).transfer(balance); // Transfer ETH to the generator\r\n    }\r\n\r\n    // Get the token balance of a specific address\r\n    function getTokenBalance(address account) public view returns (uint256) {\r\n        return balances[account];\r\n    }\r\n}\r\n",
  "sourcePath": "D:\\carbon-credit-ecosystem\\contracts\\BuyCredits.sol",
  "compiler": {
    "name": "solc",
    "version": "0.8.28+commit.7893614a.Emscripten.clang"
  },
  "schemaVersion": "3.4.16",
  "updatedAt": "2024-12-27T16:50:00.734Z",
  "devdoc": {
    "kind": "dev",
    "methods": {},
    "version": 1
  },
  "userdoc": {
    "kind": "user",
    "methods": {},
    "version": 1
  }
}