{
  "contractName": "MintNFT",
  "abi": [
    {
      "inputs": [
        {
          "internalType": "address",
          "name": "",
          "type": "address"
        }
      ],
      "name": "certificates",
      "outputs": [
        {
          "internalType": "address",
          "name": "owner",
          "type": "address"
        },
        {
          "internalType": "uint256",
          "name": "burnAmount",
          "type": "uint256"
        },
        {
          "internalType": "uint256",
          "name": "timestamp",
          "type": "uint256"
        }
      ],
      "stateMutability": "view",
      "type": "function",
      "constant": true
    },
    {
      "inputs": [],
      "name": "name",
      "outputs": [
        {
          "internalType": "string",
          "name": "",
          "type": "string"
        }
      ],
      "stateMutability": "view",
      "type": "function",
      "constant": true
    },
    {
      "inputs": [],
      "name": "symbol",
      "outputs": [
        {
          "internalType": "string",
          "name": "",
          "type": "string"
        }
      ],
      "stateMutability": "view",
      "type": "function",
      "constant": true
    },
    {
      "inputs": [
        {
          "internalType": "address",
          "name": "_consumer",
          "type": "address"
        },
        {
          "internalType": "uint256",
          "name": "amount",
          "type": "uint256"
        }
      ],
      "name": "mintCRC",
      "outputs": [],
      "stateMutability": "nonpayable",
      "type": "function"
    },
    {
      "inputs": [
        {
          "internalType": "address",
          "name": "_user",
          "type": "address"
        }
      ],
      "name": "getCRC",
      "outputs": [
        {
          "internalType": "address",
          "name": "owner",
          "type": "address"
        },
        {
          "internalType": "uint256",
          "name": "amount",
          "type": "uint256"
        },
        {
          "internalType": "uint256",
          "name": "timestamp",
          "type": "uint256"
        }
      ],
      "stateMutability": "view",
      "type": "function",
      "constant": true
    }
  ],
  "bytecode": "0x60806040526040518060400160405280601a81526020017f436172626f6e2052656d6f76616c2043657274696669636174650000000000008152505f908161004791906102db565b506040518060400160405280600381526020017f43524300000000000000000000000000000000000000000000000000000000008152506001908161008c91906102db565b50348015610098575f5ffd5b506103aa565b5f81519050919050565b7f4e487b71000000000000000000000000000000000000000000000000000000005f52604160045260245ffd5b7f4e487b71000000000000000000000000000000000000000000000000000000005f52602260045260245ffd5b5f600282049050600182168061011957607f821691505b60208210810361012c5761012b6100d5565b5b50919050565b5f819050815f5260205f209050919050565b5f6020601f8301049050919050565b5f82821b905092915050565b5f6008830261018e7fffffffffffffffffffffffffffffffffffffffffffffffffffffffffffffffff82610153565b6101988683610153565b95508019841693508086168417925050509392505050565b5f819050919050565b5f819050919050565b5f6101dc6101d76101d2846101b0565b6101b9565b6101b0565b9050919050565b5f819050919050565b6101f5836101c2565b610209610201826101e3565b84845461015f565b825550505050565b5f5f905090565b610220610211565b61022b8184846101ec565b505050565b5b8181101561024e576102435f82610218565b600181019050610231565b5050565b601f8211156102935761026481610132565b61026d84610144565b8101602085101561027c578190505b61029061028885610144565b830182610230565b50505b505050565b5f82821c905092915050565b5f6102b35f1984600802610298565b1980831691505092915050565b5f6102cb83836102a4565b9150826002028217905092915050565b6102e48261009e565b67ffffffffffffffff8111156102fd576102fc6100a8565b5b6103078254610102565b610312828285610252565b5f60209050601f831160018114610343575f8415610331578287015190505b61033b85826102c0565b8655506103a2565b601f19841661035186610132565b5f5b8281101561037857848901518255600182019150602085019450602081019050610353565b868310156103955784890151610391601f8916826102a4565b8355505b6001600288020188555050505b505050505050565b61067f806103b75f395ff3fe608060405234801561000f575f5ffd5b5060043610610054575f3560e01c806216e5261461005857806306fdde031461008a5780637f26b7e0146100a857806395d89b41146100c4578063f7c0baa8146100e2575b5f5ffd5b610072600480360381019061006d919061046d565b610114565b604051610081939291906104bf565b60405180910390f35b610092610159565b60405161009f9190610564565b60405180910390f35b6100c260048036038101906100bd91906105ae565b6101e4565b005b6100cc6102b1565b6040516100d99190610564565b60405180910390f35b6100fc60048036038101906100f7919061046d565b61033d565b60405161010b939291906104bf565b60405180910390f35b6002602052805f5260405f205f91509050805f015f9054906101000a900473ffffffffffffffffffffffffffffffffffffffff16908060010154908060020154905083565b5f805461016590610619565b80601f016020809104026020016040519081016040528092919081815260200182805461019190610619565b80156101dc5780601f106101b3576101008083540402835291602001916101dc565b820191905f5260205f20905b8154815290600101906020018083116101bf57829003601f168201915b505050505081565b60405180606001604052808373ffffffffffffffffffffffffffffffffffffffff1681526020018281526020014281525060025f8473ffffffffffffffffffffffffffffffffffffffff1673ffffffffffffffffffffffffffffffffffffffff1681526020019081526020015f205f820151815f015f6101000a81548173ffffffffffffffffffffffffffffffffffffffff021916908373ffffffffffffffffffffffffffffffffffffffff16021790555060208201518160010155604082015181600201559050505050565b600180546102be90610619565b80601f01602080910402602001604051908101604052809291908181526020018280546102ea90610619565b80156103355780601f1061030c57610100808354040283529160200191610335565b820191905f5260205f20905b81548152906001019060200180831161031857829003601f168201915b505050505081565b5f5f5f5f60025f8673ffffffffffffffffffffffffffffffffffffffff1673ffffffffffffffffffffffffffffffffffffffff1681526020019081526020015f206040518060600160405290815f82015f9054906101000a900473ffffffffffffffffffffffffffffffffffffffff1673ffffffffffffffffffffffffffffffffffffffff1673ffffffffffffffffffffffffffffffffffffffff168152602001600182015481526020016002820154815250509050805f015181602001518260400151935093509350509193909250565b5f5ffd5b5f73ffffffffffffffffffffffffffffffffffffffff82169050919050565b5f61043c82610413565b9050919050565b61044c81610432565b8114610456575f5ffd5b50565b5f8135905061046781610443565b92915050565b5f602082840312156104825761048161040f565b5b5f61048f84828501610459565b91505092915050565b6104a181610432565b82525050565b5f819050919050565b6104b9816104a7565b82525050565b5f6060820190506104d25f830186610498565b6104df60208301856104b0565b6104ec60408301846104b0565b949350505050565b5f81519050919050565b5f82825260208201905092915050565b8281835e5f83830152505050565b5f601f19601f8301169050919050565b5f610536826104f4565b61054081856104fe565b935061055081856020860161050e565b6105598161051c565b840191505092915050565b5f6020820190508181035f83015261057c818461052c565b905092915050565b61058d816104a7565b8114610597575f5ffd5b50565b5f813590506105a881610584565b92915050565b5f5f604083850312156105c4576105c361040f565b5b5f6105d185828601610459565b92505060206105e28582860161059a565b9150509250929050565b7f4e487b71000000000000000000000000000000000000000000000000000000005f52602260045260245ffd5b5f600282049050600182168061063057607f821691505b602082108103610643576106426105ec565b5b5091905056fea2646970667358221220c672293041ea7edbebfbf413f9b3ea37647e36170230513f8c83a850b67c37f464736f6c634300081d0033",
  "immutableReferences": {},
  "source": "// SPDX-License-Identifier: MIT\r\npragma solidity ^0.8.19;\r\n\r\ncontract MintNFT{\r\n    string public name = \"Carbon Removal Certificate\";\r\n    string public symbol = \"CRC\";\r\n    \r\n    struct CRCInfo {\r\n        address owner;\r\n        uint256 burnAmount;       // Amount of carbon retired\r\n        uint256 timestamp;    // When it was retired\r\n    }\r\n\r\n    mapping(address => CRCInfo) public certificates;\r\n\r\n    function mintCRC(address _consumer,uint256 amount) external{\r\n        certificates[_consumer] = CRCInfo({\r\n            owner: _consumer,\r\n            burnAmount: amount,\r\n            timestamp: block.timestamp\r\n        });\r\n    }\r\n\r\n    function getCRC(address _user) external view returns (address owner, uint256 amount,uint256 timestamp) {\r\n        CRCInfo memory info = certificates[_user];\r\n        return (info.owner, info.burnAmount, info.timestamp);\r\n    }\r\n}",
  "sourcePath": "D:\\carbon-credit-ecosystem\\contracts\\MintNFT.sol",
  "compiler": {
    "name": "solc",
    "version": "0.8.29+commit.ab55807c.Emscripten.clang"
  },
  "schemaVersion": "3.4.16",
  "updatedAt": "2025-05-04T12:46:17.675Z",
  "networkType": "ethereum",
  "devdoc": {
    "kind": "dev",
    "methods": {},
    "version": 1
  },
  "userdoc": {
    "kind": "user",
    "methods": {},
    "version": 1
  }
}