{
  "contractName": "MintTokens",
  "abi": [
    {
      "inputs": [],
      "stateMutability": "nonpayable",
      "type": "constructor"
    },
    {
      "inputs": [
        {
          "internalType": "address",
          "name": "",
          "type": "address"
        }
      ],
      "name": "balances",
      "outputs": [
        {
          "internalType": "uint256",
          "name": "",
          "type": "uint256"
        }
      ],
      "stateMutability": "view",
      "type": "function"
    },
    {
      "inputs": [],
      "name": "name",
      "outputs": [
        {
          "internalType": "string",
          "name": "",
          "type": "string"
        }
      ],
      "stateMutability": "view",
      "type": "function"
    },
    {
      "inputs": [],
      "name": "owner",
      "outputs": [
        {
          "internalType": "address",
          "name": "",
          "type": "address"
        }
      ],
      "stateMutability": "view",
      "type": "function"
    },
    {
      "inputs": [],
      "name": "totalSupply",
      "outputs": [
        {
          "internalType": "uint256",
          "name": "",
          "type": "uint256"
        }
      ],
      "stateMutability": "view",
      "type": "function"
    },
    {
      "inputs": [
        {
          "internalType": "uint256",
          "name": "amount",
          "type": "uint256"
        }
      ],
      "name": "mint",
      "outputs": [],
      "stateMutability": "payable",
      "type": "function"
    },
    {
      "inputs": [
        {
          "internalType": "address",
          "name": "user",
          "type": "address"
        }
      ],
      "name": "getBalance",
      "outputs": [
        {
          "internalType": "uint256",
          "name": "",
          "type": "uint256"
        }
      ],
      "stateMutability": "view",
      "type": "function"
    }
  ],
  "bytecode": "0x60806040526040518060400160405280600e81526020017f4d696e7461626c6520546f6b656e0000000000000000000000000000000000008152505f908162000049919062000301565b5034801562000056575f80fd5b503360015f6101000a81548173ffffffffffffffffffffffffffffffffffffffff021916908373ffffffffffffffffffffffffffffffffffffffff160217905550620003e5565b5f81519050919050565b7f4e487b71000000000000000000000000000000000000000000000000000000005f52604160045260245ffd5b7f4e487b71000000000000000000000000000000000000000000000000000000005f52602260045260245ffd5b5f60028204905060018216806200011957607f821691505b6020821081036200012f576200012e620000d4565b5b50919050565b5f819050815f5260205f209050919050565b5f6020601f8301049050919050565b5f82821b905092915050565b5f60088302620001937fffffffffffffffffffffffffffffffffffffffffffffffffffffffffffffffff8262000156565b6200019f868362000156565b95508019841693508086168417925050509392505050565b5f819050919050565b5f819050919050565b5f620001e9620001e3620001dd84620001b7565b620001c0565b620001b7565b9050919050565b5f819050919050565b6200020483620001c9565b6200021c6200021382620001f0565b84845462000162565b825550505050565b5f90565b6200023262000224565b6200023f818484620001f9565b505050565b5b8181101562000266576200025a5f8262000228565b60018101905062000245565b5050565b601f821115620002b5576200027f8162000135565b6200028a8462000147565b810160208510156200029a578190505b620002b2620002a98562000147565b83018262000244565b50505b505050565b5f82821c905092915050565b5f620002d75f1984600802620002ba565b1980831691505092915050565b5f620002f18383620002c6565b9150826002028217905092915050565b6200030c826200009d565b67ffffffffffffffff811115620003285762000327620000a7565b5b62000334825462000101565b620003418282856200026a565b5f60209050601f83116001811462000377575f841562000362578287015190505b6200036e8582620002e4565b865550620003dd565b601f198416620003878662000135565b5f5b82811015620003b05784890151825560018201915060208501945060208101905062000389565b86831015620003d05784890151620003cc601f891682620002c6565b8355505b6001600288020188555050505b505050505050565b6106bb80620003f35f395ff3fe608060405260043610610054575f3560e01c806306fdde031461005857806318160ddd1461008257806327e235e3146100ac5780638da5cb5b146100e8578063a0712d6814610112578063f8b2cb4f1461012e575b5f80fd5b348015610063575f80fd5b5061006c61016a565b60405161007991906103c8565b60405180910390f35b34801561008d575f80fd5b506100966101f5565b6040516100a39190610400565b60405180910390f35b3480156100b7575f80fd5b506100d260048036038101906100cd9190610477565b6101fb565b6040516100df9190610400565b60405180910390f35b3480156100f3575f80fd5b506100fc610210565b60405161010991906104b1565b60405180910390f35b61012c600480360381019061012791906104f4565b610235565b005b348015610139575f80fd5b50610154600480360381019061014f9190610477565b6102f8565b6040516101619190610400565b60405180910390f35b5f80546101769061054c565b80601f01602080910402602001604051908101604052809291908181526020018280546101a29061054c565b80156101ed5780601f106101c4576101008083540402835291602001916101ed565b820191905f5260205f20905b8154815290600101906020018083116101d057829003601f168201915b505050505081565b60025481565b6003602052805f5260405f205f915090505481565b60015f9054906101000a900473ffffffffffffffffffffffffffffffffffffffff1681565b662386f26fc100008161024891906105a9565b34101561028a576040517f08c379a000000000000000000000000000000000000000000000000000000000815260040161028190610634565b60405180910390fd5b8060025f82825461029b9190610652565b925050819055508060035f3373ffffffffffffffffffffffffffffffffffffffff1673ffffffffffffffffffffffffffffffffffffffff1681526020019081526020015f205f8282546102ee9190610652565b9250508190555050565b5f60035f8373ffffffffffffffffffffffffffffffffffffffff1673ffffffffffffffffffffffffffffffffffffffff1681526020019081526020015f20549050919050565b5f81519050919050565b5f82825260208201905092915050565b5f5b8381101561037557808201518184015260208101905061035a565b5f8484015250505050565b5f601f19601f8301169050919050565b5f61039a8261033e565b6103a48185610348565b93506103b4818560208601610358565b6103bd81610380565b840191505092915050565b5f6020820190508181035f8301526103e08184610390565b905092915050565b5f819050919050565b6103fa816103e8565b82525050565b5f6020820190506104135f8301846103f1565b92915050565b5f80fd5b5f73ffffffffffffffffffffffffffffffffffffffff82169050919050565b5f6104468261041d565b9050919050565b6104568161043c565b8114610460575f80fd5b50565b5f813590506104718161044d565b92915050565b5f6020828403121561048c5761048b610419565b5b5f61049984828501610463565b91505092915050565b6104ab8161043c565b82525050565b5f6020820190506104c45f8301846104a2565b92915050565b6104d3816103e8565b81146104dd575f80fd5b50565b5f813590506104ee816104ca565b92915050565b5f6020828403121561050957610508610419565b5b5f610516848285016104e0565b91505092915050565b7f4e487b71000000000000000000000000000000000000000000000000000000005f52602260045260245ffd5b5f600282049050600182168061056357607f821691505b6020821081036105765761057561051f565b5b50919050565b7f4e487b71000000000000000000000000000000000000000000000000000000005f52601160045260245ffd5b5f6105b3826103e8565b91506105be836103e8565b92508282026105cc816103e8565b915082820484148315176105e3576105e261057c565b5b5092915050565b7f496e73756666696369656e742045746865722073656e740000000000000000005f82015250565b5f61061e601783610348565b9150610629826105ea565b602082019050919050565b5f6020820190508181035f83015261064b81610612565b9050919050565b5f61065c826103e8565b9150610667836103e8565b925082820190508082111561067f5761067e61057c565b5b9291505056fea264697066735822122091407595555c55a5d2fd39d856d63523448abccc0de3ed16ab5c5b4c25e869da64736f6c63430008140033",
  "immutableReferences": {},
  "source": "// SPDX-License-Identifier: UNLICENSED\r\npragma solidity ^0.8.0;\r\n\r\ncontract MintTokens {\r\n    string public name = \"Mintable Token\";\r\n    address public owner;\r\n    uint256 public totalSupply;\r\n        \r\n    mapping(address => uint256) public balances;\r\n\r\n    constructor() {\r\n        owner = msg.sender;\r\n    }\r\n\r\n    function mint(uint256 amount) public payable {\r\n        require(msg.value >= amount * 0.01 ether, \"Insufficient Ether sent\");\r\n        totalSupply += amount;\r\n        balances[msg.sender] += amount;\r\n    }\r\n\r\n    function getBalance(address user) public view returns (uint256) {\r\n        return balances[user];\r\n    }\r\n}\r\n",
  "sourcePath": "D:\\carbon-credit-ecosystem\\contracts\\MintTokens.sol",
  "compiler": {
    "name": "solc",
    "version": "0.8.20+commit.a1b79de6.Emscripten.clang"
  },
  "schemaVersion": "3.4.16",
  "updatedAt": "2024-12-23T10:57:04.981Z",
  "devdoc": {
    "kind": "dev",
    "methods": {},
    "version": 1
  },
  "userdoc": {
    "kind": "user",
    "methods": {},
    "version": 1
  }
}