{
  "contractName": "MintTokens",
  "abi": [
    {
      "inputs": [
        {
          "internalType": "address",
          "name": "",
          "type": "address"
        }
      ],
      "name": "balanceOf",
      "outputs": [
        {
          "internalType": "uint256",
          "name": "",
          "type": "uint256"
        }
      ],
      "stateMutability": "view",
      "type": "function",
      "constant": true
    },
    {
      "inputs": [],
      "name": "decimals",
      "outputs": [
        {
          "internalType": "uint8",
          "name": "",
          "type": "uint8"
        }
      ],
      "stateMutability": "view",
      "type": "function",
      "constant": true
    },
    {
      "inputs": [],
      "name": "name",
      "outputs": [
        {
          "internalType": "string",
          "name": "",
          "type": "string"
        }
      ],
      "stateMutability": "view",
      "type": "function",
      "constant": true
    },
    {
      "inputs": [],
      "name": "symbol",
      "outputs": [
        {
          "internalType": "string",
          "name": "",
          "type": "string"
        }
      ],
      "stateMutability": "view",
      "type": "function",
      "constant": true
    },
    {
      "inputs": [],
      "name": "totalSupply",
      "outputs": [
        {
          "internalType": "uint256",
          "name": "",
          "type": "uint256"
        }
      ],
      "stateMutability": "view",
      "type": "function",
      "constant": true
    },
    {
      "inputs": [
        {
          "internalType": "address",
          "name": "_generator",
          "type": "address"
        },
        {
          "internalType": "uint256",
          "name": "_amount",
          "type": "uint256"
        }
      ],
      "name": "mintTokens",
      "outputs": [],
      "stateMutability": "nonpayable",
      "type": "function"
    }
  ],
  "bytecode": "0x60806040526040518060400160405280601381526020017f436172626f6e2043726564697420546f6b656e000000000000000000000000008152505f908161004791906102f6565b506040518060400160405280600381526020017f43435400000000000000000000000000000000000000000000000000000000008152506001908161008c91906102f6565b50601260025f6101000a81548160ff021916908360ff1602179055503480156100b3575f5ffd5b506103c5565b5f81519050919050565b7f4e487b71000000000000000000000000000000000000000000000000000000005f52604160045260245ffd5b7f4e487b71000000000000000000000000000000000000000000000000000000005f52602260045260245ffd5b5f600282049050600182168061013457607f821691505b602082108103610147576101466100f0565b5b50919050565b5f819050815f5260205f209050919050565b5f6020601f8301049050919050565b5f82821b905092915050565b5f600883026101a97fffffffffffffffffffffffffffffffffffffffffffffffffffffffffffffffff8261016e565b6101b3868361016e565b95508019841693508086168417925050509392505050565b5f819050919050565b5f819050919050565b5f6101f76101f26101ed846101cb565b6101d4565b6101cb565b9050919050565b5f819050919050565b610210836101dd565b61022461021c826101fe565b84845461017a565b825550505050565b5f5f905090565b61023b61022c565b610246818484610207565b505050565b5b818110156102695761025e5f82610233565b60018101905061024c565b5050565b601f8211156102ae5761027f8161014d565b6102888461015f565b81016020851015610297578190505b6102ab6102a38561015f565b83018261024b565b50505b505050565b5f82821c905092915050565b5f6102ce5f19846008026102b3565b1980831691505092915050565b5f6102e683836102bf565b9150826002028217905092915050565b6102ff826100b9565b67ffffffffffffffff811115610318576103176100c3565b5b610322825461011d565b61032d82828561026d565b5f60209050601f83116001811461035e575f841561034c578287015190505b61035685826102db565b8655506103bd565b601f19841661036c8661014d565b5f5b828110156103935784890151825560018201915060208501945060208101905061036e565b868310156103b057848901516103ac601f8916826102bf565b8355505b6001600288020188555050505b505050505050565b6105b4806103d25f395ff3fe608060405234801561000f575f5ffd5b5060043610610060575f3560e01c806306fdde031461006457806318160ddd14610082578063313ce567146100a057806370a08231146100be57806395d89b41146100ee578063f0dda65c1461010c575b5f5ffd5b61006c610128565b604051610079919061034b565b60405180910390f35b61008a6101b3565b6040516100979190610383565b60405180910390f35b6100a86101b9565b6040516100b591906103b7565b60405180910390f35b6100d860048036038101906100d3919061042e565b6101cb565b6040516100e59190610383565b60405180910390f35b6100f66101e0565b604051610103919061034b565b60405180910390f35b61012660048036038101906101219190610483565b61026c565b005b5f8054610134906104ee565b80601f0160208091040260200160405190810160405280929190818152602001828054610160906104ee565b80156101ab5780601f10610182576101008083540402835291602001916101ab565b820191905f5260205f20905b81548152906001019060200180831161018e57829003601f168201915b505050505081565b60045481565b60025f9054906101000a900460ff1681565b6003602052805f5260405f205f915090505481565b600180546101ed906104ee565b80601f0160208091040260200160405190810160405280929190818152602001828054610219906104ee565b80156102645780601f1061023b57610100808354040283529160200191610264565b820191905f5260205f20905b81548152906001019060200180831161024757829003601f168201915b505050505081565b8060035f8473ffffffffffffffffffffffffffffffffffffffff1673ffffffffffffffffffffffffffffffffffffffff1681526020019081526020015f205f8282546102b8919061054b565b925050819055508060045f8282546102d0919061054b565b925050819055505050565b5f81519050919050565b5f82825260208201905092915050565b8281835e5f83830152505050565b5f601f19601f8301169050919050565b5f61031d826102db565b61032781856102e5565b93506103378185602086016102f5565b61034081610303565b840191505092915050565b5f6020820190508181035f8301526103638184610313565b905092915050565b5f819050919050565b61037d8161036b565b82525050565b5f6020820190506103965f830184610374565b92915050565b5f60ff82169050919050565b6103b18161039c565b82525050565b5f6020820190506103ca5f8301846103a8565b92915050565b5f5ffd5b5f73ffffffffffffffffffffffffffffffffffffffff82169050919050565b5f6103fd826103d4565b9050919050565b61040d816103f3565b8114610417575f5ffd5b50565b5f8135905061042881610404565b92915050565b5f60208284031215610443576104426103d0565b5b5f6104508482850161041a565b91505092915050565b6104628161036b565b811461046c575f5ffd5b50565b5f8135905061047d81610459565b92915050565b5f5f60408385031215610499576104986103d0565b5b5f6104a68582860161041a565b92505060206104b78582860161046f565b9150509250929050565b7f4e487b71000000000000000000000000000000000000000000000000000000005f52602260045260245ffd5b5f600282049050600182168061050557607f821691505b602082108103610518576105176104c1565b5b50919050565b7f4e487b71000000000000000000000000000000000000000000000000000000005f52601160045260245ffd5b5f6105558261036b565b91506105608361036b565b92508282019050808211156105785761057761051e565b5b9291505056fea264697066735822122021afaaf145acbef3a0c28cdc41b0103b4188237080100941ce74f4c3c93cc2ca64736f6c634300081d0033",
  "immutableReferences": {},
  "source": "// SPDX-License-Identifier: MIT\r\npragma solidity ^0.8.19;\r\n\r\ncontract MintTokens {\r\n    string public name = \"Carbon Credit Token\";\r\n    string public symbol = \"CCT\";\r\n    uint8 public decimals = 18;\r\n\r\n    mapping(address => uint256) public balanceOf;\r\n    uint256 public totalSupply;\r\n\r\n    function mintTokens(address _generator, uint256 _amount) external {\r\n        balanceOf[_generator] += _amount;\r\n        totalSupply += _amount;\r\n    }\r\n}\r\n",
  "sourcePath": "D:\\carbon-credit-ecosystem\\contracts\\MintTokens.sol",
  "compiler": {
    "name": "solc",
    "version": "0.8.29+commit.ab55807c.Emscripten.clang"
  },
  "schemaVersion": "3.4.16",
  "updatedAt": "2025-03-16T19:56:48.163Z",
  "networkType": "ethereum",
  "devdoc": {
    "kind": "dev",
    "methods": {},
    "version": 1
  },
  "userdoc": {
    "kind": "user",
    "methods": {},
    "version": 1
  }
}