{
  "contractName": "MultiValidator",
  "abi": [
    {
      "inputs": [
        {
          "internalType": "address",
          "name": "_validator",
          "type": "address"
        },
        {
          "internalType": "address",
          "name": "_mint",
          "type": "address"
        }
      ],
      "stateMutability": "payable",
      "type": "constructor",
      "payable": true
    },
    {
      "stateMutability": "payable",
      "type": "fallback",
      "payable": true
    },
    {
      "inputs": [],
      "name": "approvalCount",
      "outputs": [
        {
          "internalType": "uint256",
          "name": "",
          "type": "uint256"
        }
      ],
      "stateMutability": "view",
      "type": "function",
      "constant": true
    },
    {
      "inputs": [],
      "name": "approveNFT",
      "outputs": [
        {
          "internalType": "uint256",
          "name": "",
          "type": "uint256"
        }
      ],
      "stateMutability": "view",
      "type": "function",
      "constant": true
    },
    {
      "inputs": [],
      "name": "consumer_receiver",
      "outputs": [
        {
          "internalType": "address payable",
          "name": "",
          "type": "address"
        }
      ],
      "stateMutability": "view",
      "type": "function",
      "constant": true
    },
    {
      "inputs": [],
      "name": "creditAmount",
      "outputs": [
        {
          "internalType": "uint256",
          "name": "",
          "type": "uint256"
        }
      ],
      "stateMutability": "view",
      "type": "function",
      "constant": true
    },
    {
      "inputs": [],
      "name": "mint",
      "outputs": [
        {
          "internalType": "address",
          "name": "",
          "type": "address"
        }
      ],
      "stateMutability": "view",
      "type": "function",
      "constant": true
    },
    {
      "inputs": [],
      "name": "receiver",
      "outputs": [
        {
          "internalType": "address payable",
          "name": "",
          "type": "address"
        }
      ],
      "stateMutability": "view",
      "type": "function",
      "constant": true
    },
    {
      "inputs": [],
      "name": "retireAmount",
      "outputs": [
        {
          "internalType": "uint256",
          "name": "",
          "type": "uint256"
        }
      ],
      "stateMutability": "view",
      "type": "function",
      "constant": true
    },
    {
      "inputs": [],
      "name": "validator",
      "outputs": [
        {
          "internalType": "address",
          "name": "",
          "type": "address"
        }
      ],
      "stateMutability": "view",
      "type": "function",
      "constant": true
    },
    {
      "stateMutability": "payable",
      "type": "receive",
      "payable": true
    },
    {
      "inputs": [
        {
          "internalType": "address payable",
          "name": "_consumer",
          "type": "address"
        },
        {
          "internalType": "uint256",
          "name": "_amount",
          "type": "uint256"
        }
      ],
      "name": "burnTokens",
      "outputs": [],
      "stateMutability": "nonpayable",
      "type": "function"
    },
    {
      "inputs": [
        {
          "internalType": "address payable",
          "name": "_generator",
          "type": "address"
        },
        {
          "internalType": "uint256",
          "name": "_sequestrationTons",
          "type": "uint256"
        }
      ],
      "name": "voteToApprove",
      "outputs": [],
      "stateMutability": "nonpayable",
      "type": "function"
    }
  ],
  "bytecode": "0x60806040525f6004555f600555604051610bb4380380610bb4833981810160405281019061002d919061017f565b5f73ffffffffffffffffffffffffffffffffffffffff168273ffffffffffffffffffffffffffffffffffffffff160361009b576040517f08c379a000000000000000000000000000000000000000000000000000000000815260040161009290610217565b60405180910390fd5b815f5f6101000a81548173ffffffffffffffffffffffffffffffffffffffff021916908373ffffffffffffffffffffffffffffffffffffffff1602179055508060025f6101000a81548173ffffffffffffffffffffffffffffffffffffffff021916908373ffffffffffffffffffffffffffffffffffffffff1602179055505050610235565b5f5ffd5b5f73ffffffffffffffffffffffffffffffffffffffff82169050919050565b5f61014e82610125565b9050919050565b61015e81610144565b8114610168575f5ffd5b50565b5f8151905061017981610155565b92915050565b5f5f6040838503121561019557610194610121565b5b5f6101a28582860161016b565b92505060206101b38582860161016b565b9150509250929050565b5f82825260208201905092915050565b7f56616c696461746f7220616464726573732063616e6e6f74206265207a65726f5f82015250565b5f6102016020836101bd565b915061020c826101cd565b602082019050919050565b5f6020820190508181035f83015261022e816101f5565b9050919050565b610972806102425f395ff3fe608060405260043610610094575f3560e01c80636884d0a6116100585780636884d0a6146101675780639995261a146101915780639b6644ea146101bb578063dbfcec23146101e5578063f7260d3e1461020d57610095565b80630d1118ce146100975780630e53b169146100bf5780631249c58b146100e95780633a5381b5146101135780633dc119571461013d57610095565b5b005b3480156100a2575f5ffd5b506100bd60048036038101906100b891906105c5565b610237565b005b3480156100ca575f5ffd5b506100d3610360565b6040516100e09190610612565b60405180910390f35b3480156100f4575f5ffd5b506100fd610366565b60405161010a919061064b565b60405180910390f35b34801561011e575f5ffd5b5061012761038b565b604051610134919061064b565b60405180910390f35b348015610148575f5ffd5b506101516103af565b60405161015e9190610612565b60405180910390f35b348015610172575f5ffd5b5061017b6103b5565b6040516101889190610612565b60405180910390f35b34801561019c575f5ffd5b506101a56103bb565b6040516101b29190610612565b60405180910390f35b3480156101c6575f5ffd5b506101cf6103c1565b6040516101dc9190610673565b60405180910390f35b3480156101f0575f5ffd5b5061020b600480360381019061020691906105c5565b6103e6565b005b348015610218575f5ffd5b5061022161050f565b60405161022e9190610673565b60405180910390f35b60055f815480929190610249906106b9565b91905055506001600554036102b7578160065f6101000a81548173ffffffffffffffffffffffffffffffffffffffff021916908373ffffffffffffffffffffffffffffffffffffffff160217905550670de0b6b3a7640000816102ac919061082f565b60078190555061035c565b60026005540361035b5760025f9054906101000a900473ffffffffffffffffffffffffffffffffffffffff1673ffffffffffffffffffffffffffffffffffffffff166379cc6790836007546040518363ffffffff1660e01b815260040161031f9291906108d4565b5f604051808303815f87803b158015610336575f5ffd5b505af1158015610348573d5f5f3e3d5ffd5b505050505f6005819055505f6007819055505b5b5050565b60075481565b60025f9054906101000a900473ffffffffffffffffffffffffffffffffffffffff1681565b5f5f9054906101000a900473ffffffffffffffffffffffffffffffffffffffff1681565b60055481565b60045481565b60035481565b60065f9054906101000a900473ffffffffffffffffffffffffffffffffffffffff1681565b60045f8154809291906103f8906106b9565b9190505550600160045403610466578160015f6101000a81548173ffffffffffffffffffffffffffffffffffffffff021916908373ffffffffffffffffffffffffffffffffffffffff160217905550670de0b6b3a76400008161045b91906108fb565b60038190555061050b565b60026004540361050a5760025f9054906101000a900473ffffffffffffffffffffffffffffffffffffffff1673ffffffffffffffffffffffffffffffffffffffff1663f0dda65c836003546040518363ffffffff1660e01b81526004016104ce9291906108d4565b5f604051808303815f87803b1580156104e5575f5ffd5b505af11580156104f7573d5f5f3e3d5ffd5b505050505f6004819055505f6003819055505b5b5050565b60015f9054906101000a900473ffffffffffffffffffffffffffffffffffffffff1681565b5f5ffd5b5f73ffffffffffffffffffffffffffffffffffffffff82169050919050565b5f61056182610538565b9050919050565b61057181610557565b811461057b575f5ffd5b50565b5f8135905061058c81610568565b92915050565b5f819050919050565b6105a481610592565b81146105ae575f5ffd5b50565b5f813590506105bf8161059b565b92915050565b5f5f604083850312156105db576105da610534565b5b5f6105e88582860161057e565b92505060206105f9858286016105b1565b9150509250929050565b61060c81610592565b82525050565b5f6020820190506106255f830184610603565b92915050565b5f61063582610538565b9050919050565b6106458161062b565b82525050565b5f60208201905061065e5f83018461063c565b92915050565b61066d81610557565b82525050565b5f6020820190506106865f830184610664565b92915050565b7f4e487b71000000000000000000000000000000000000000000000000000000005f52601160045260245ffd5b5f6106c382610592565b91507fffffffffffffffffffffffffffffffffffffffffffffffffffffffffffffffff82036106f5576106f461068c565b5b600182019050919050565b5f8160011c9050919050565b5f5f8291508390505b6001851115610755578086048111156107315761073061068c565b5b60018516156107405780820291505b808102905061074e85610700565b9450610715565b94509492505050565b5f8261076d5760019050610828565b8161077a575f9050610828565b8160018114610790576002811461079a576107c9565b6001915050610828565b60ff8411156107ac576107ab61068c565b5b8360020a9150848211156107c3576107c261068c565b5b50610828565b5060208310610133831016604e8410600b84101617156107fe5782820a9050838111156107f9576107f861068c565b5b610828565b61080b848484600161070c565b925090508184048111156108225761082161068c565b5b81810290505b9392505050565b5f61083982610592565b915061084483610592565b92506108717fffffffffffffffffffffffffffffffffffffffffffffffffffffffffffffffff848461075e565b905092915050565b5f819050919050565b5f61089c61089761089284610538565b610879565b610538565b9050919050565b5f6108ad82610882565b9050919050565b5f6108be826108a3565b9050919050565b6108ce816108b4565b82525050565b5f6040820190506108e75f8301856108c5565b6108f46020830184610603565b9392505050565b5f61090582610592565b915061091083610592565b925082820261091e81610592565b915082820484148315176109355761093461068c565b5b509291505056fea26469706673582212209cf6c9074be88459fc4267106d85f07dd8af3e96d841eba2b1d5eb1126c16aa864736f6c634300081d0033",
  "immutableReferences": {},
  "source": "// SPDX-License-Identifier: MIT\r\npragma solidity ^0.8.19;\r\n\r\ninterface IMintContract{\r\n    function mintTokens(address generator, uint256 amount) external;\r\n    function burnFrom(address consumer,uint256 amount) external;\r\n}\r\n\r\ncontract MultiValidator {\r\n    address public validator; // Validator\r\n    address payable public receiver; // Generator   \r\n    address public mint;  //mint\r\n    uint256 public creditAmount; // Hold credits\r\n    uint256 public approvalCount=0; // Approvals\r\n    \r\n    //consumer part\r\n    uint256 public approveNFT=0; \r\n    address payable public consumer_receiver;\r\n    uint256 public retireAmount;\r\n\r\n    uint256 constant CCT_DECIMALS = 10**18; // Scaling factor\r\n\r\n    constructor(address _validator, address _mint) payable {\r\n        require(_validator != address(0), \"Validator address cannot be zero\");\r\n        validator = _validator;\r\n        mint=_mint;\r\n    }\r\n\r\n    function burnTokens(address payable _consumer,uint256 _amount) public {\r\n        approveNFT++;\r\n\r\n        if(approveNFT==1){\r\n            consumer_receiver=_consumer;\r\n            retireAmount=_amount**CCT_DECIMALS;\r\n        }\r\n        else if (approveNFT==2){\r\n            IMintContract(mint).burnFrom(_consumer, retireAmount);\r\n\r\n            //NFT MINT OVER HERE\r\n\r\n            //reset\r\n            approveNFT=0;\r\n            retireAmount=0;\r\n        }\r\n    }\r\n\r\n    function voteToApprove(address payable _generator, uint256 _sequestrationTons) public{\r\n        approvalCount++;\r\n\r\n        if(approvalCount==1){\r\n            receiver = _generator;\r\n            creditAmount = _sequestrationTons  * 1 ether; // store first credit\r\n        }\r\n        else if(approvalCount==2){\r\n            // require(address(this).balance >= creditAmount, \"Insufficient contract balance\");\r\n            // receiver.transfer(creditAmount); \r\n\r\n            IMintContract(mint).mintTokens(_generator, creditAmount);\r\n            approvalCount = 0; // Reset the count\r\n            creditAmount = 0; // Reset the credit\r\n        }\r\n    }\r\n    \r\n    receive() external payable {}\r\n    fallback() external payable {}\r\n}\r\n",
  "sourcePath": "D:\\carbon-credit-ecosystem\\contracts\\MultiValidator.sol",
  "compiler": {
    "name": "solc",
    "version": "0.8.29+commit.ab55807c.Emscripten.clang"
  },
  "schemaVersion": "3.4.16",
  "updatedAt": "2025-05-03T19:16:54.288Z",
  "networkType": "ethereum",
  "devdoc": {
    "kind": "dev",
    "methods": {},
    "version": 1
  },
  "userdoc": {
    "kind": "user",
    "methods": {},
    "version": 1
  }
}