{
    "contractName": "MultiValidator",
    "abi": [
        {
            "inputs": [
                {
                    "internalType": "address",
                    "name": "_validator",
                    "type": "address"
                }
            ],
            "stateMutability": "nonpayable",
            "type": "constructor"
        },
        {
            "inputs": [],
            "name": "creditAmount",
            "outputs": [
                {
                    "internalType": "uint256",
                    "name": "",
                    "type": "uint256"
                }
            ],
            "stateMutability": "view",
            "type": "function"
        },
        {
            "inputs": [],
            "name": "owner",
            "outputs": [
                {
                    "internalType": "address",
                    "name": "",
                    "type": "address"
                }
            ],
            "stateMutability": "view",
            "type": "function"
        },
        {
            "inputs": [],
            "name": "receiver",
            "outputs": [
                {
                    "internalType": "address payable",
                    "name": "",
                    "type": "address"
                }
            ],
            "stateMutability": "view",
            "type": "function"
        },
        {
            "stateMutability": "payable",
            "type": "receive"
        },
        {
            "inputs": [
                {
                    "internalType": "address payable",
                    "name": "_generator",
                    "type": "address"
                },
                {
                    "internalType": "uint256",
                    "name": "_sequestrationTons",
                    "type": "uint256"
                }
            ],
            "name": "voteToApprove",
            "outputs": [],
            "stateMutability": "nonpayable",
            "type": "function"
        }
    ],
    "bytecode": "0x608060405234801561000f575f5ffd5b506040516105df3803806105df833981810160405281019061003191906100d4565b805f5f6101000a81548173ffffffffffffffffffffffffffffffffffffffff021916908373ffffffffffffffffffffffffffffffffffffffff160217905550506100ff565b5f5ffd5b5f73ffffffffffffffffffffffffffffffffffffffff82169050919050565b5f6100a38261007a565b9050919050565b6100b381610099565b81146100bd575f5ffd5b50565b5f815190506100ce816100aa565b92915050565b5f602082840312156100e9576100e8610076565b5b5f6100f6848285016100c0565b91505092915050565b6104d38061010c5f395ff3fe608060405260043610610042575f3560e01c80638da5cb5b1461004d5780639995261a14610077578063dbfcec23146100a1578063f7260d3e146100c957610049565b3661004957005b5f5ffd5b348015610058575f5ffd5b506100616100f3565b60405161006e919061029e565b60405180910390f35b348015610082575f5ffd5b5061008b610117565b60405161009891906102cf565b60405180910390f35b3480156100ac575f5ffd5b506100c760048036038101906100c29190610351565b61011d565b005b3480156100d4575f5ffd5b506100dd61023a565b6040516100ea919061039e565b60405180910390f35b5f5f9054906101000a900473ffffffffffffffffffffffffffffffffffffffff1681565b60025481565b8160015f6101000a81548173ffffffffffffffffffffffffffffffffffffffff021916908373ffffffffffffffffffffffffffffffffffffffff1602179055508060028190555067016345785d8a000060025461017a91906103e4565b4710156101bc576040517f08c379a00000000000000000000000000000000000000000000000000000000081526004016101b39061047f565b60405180910390fd5b60015f9054906101000a900473ffffffffffffffffffffffffffffffffffffffff1673ffffffffffffffffffffffffffffffffffffffff166108fc67016345785d8a000060025461020d91906103e4565b90811502906040515f60405180830381858888f19350505050158015610235573d5f5f3e3d5ffd5b505050565b60015f9054906101000a900473ffffffffffffffffffffffffffffffffffffffff1681565b5f73ffffffffffffffffffffffffffffffffffffffff82169050919050565b5f6102888261025f565b9050919050565b6102988161027e565b82525050565b5f6020820190506102b15f83018461028f565b92915050565b5f819050919050565b6102c9816102b7565b82525050565b5f6020820190506102e25f8301846102c0565b92915050565b5f5ffd5b5f6102f68261025f565b9050919050565b610306816102ec565b8114610310575f5ffd5b50565b5f81359050610321816102fd565b92915050565b610330816102b7565b811461033a575f5ffd5b50565b5f8135905061034b81610327565b92915050565b5f5f60408385031215610367576103666102e8565b5b5f61037485828601610313565b92505060206103858582860161033d565b9150509250929050565b610398816102ec565b82525050565b5f6020820190506103b15f83018461038f565b92915050565b7f4e487b71000000000000000000000000000000000000000000000000000000005f52601160045260245ffd5b5f6103ee826102b7565b91506103f9836102b7565b9250828202610407816102b7565b9150828204841483151761041e5761041d6103b7565b5b5092915050565b5f82825260208201905092915050565b7f496e73756666696369656e7420636f6e74726163742062616c616e63650000005f82015250565b5f610469601d83610425565b915061047482610435565b602082019050919050565b5f6020820190508181035f8301526104968161045d565b905091905056fea26469706673582212202a78d10992531387b598dd60f0a05ea45f31d997612e917e205b7ad52f139dff64736f6c634300081c0033",
    "immutableReferences": {},
    "source": "// SPDX-License-Identifier: MIT\r\npragma solidity ^0.8.19;\r\n\r\ncontract MultiValidator {\r\n    address public owner; //validator\r\n    address payable public receiver ; //generator    \r\n    uint256 public creditAmount; //hold credits\r\n    \r\n    constructor(address _validator) {\r\n        owner = _validator; //validator\r\n    }\r\n\r\n    function voteToApprove(address payable _generator, uint256 _sequestrationTons) public {\r\n        receiver = _generator; \r\n        creditAmount = _sequestrationTons;\r\n\r\n        require(address(this).balance >= creditAmount * 0.1 ether, \"Insufficient contract balance\");\r\n        receiver.transfer(creditAmount * 0.1 ether); // Send ETH based on sequestration\r\n    }\r\n\r\n    receive() external payable {}\r\n}\r\n",
    "sourcePath": "D:\\carbon-credit-ecosystem\\contracts\\MultiValidator.sol",
    "compiler": {
        "name": "solc",
        "version": "0.8.28+commit.7893614a.Emscripten.clang"
    },
    "schemaVersion": "3.4.16",
    "updatedAt": "2025-03-08T20:15:36.610Z",
    "devdoc": {
        "kind": "dev",
        "methods": {},
        "version": 1
    },
    "userdoc": {
        "kind": "user",
        "methods": {},
        "version": 1
    }
}