{
  "contractName": "MultiValidator",
  "abi": [
    {
      "inputs": [
        {
          "internalType": "address",
          "name": "_validator",
          "type": "address"
        }
      ],
      "stateMutability": "payable",
      "type": "constructor",
      "payable": true
    },
    {
      "stateMutability": "payable",
      "type": "fallback",
      "payable": true
    },
    {
      "inputs": [],
      "name": "approvalCount",
      "outputs": [
        {
          "internalType": "uint256",
          "name": "",
          "type": "uint256"
        }
      ],
      "stateMutability": "view",
      "type": "function",
      "constant": true
    },
    {
      "inputs": [],
      "name": "creditAmount",
      "outputs": [
        {
          "internalType": "uint256",
          "name": "",
          "type": "uint256"
        }
      ],
      "stateMutability": "view",
      "type": "function",
      "constant": true
    },
    {
      "inputs": [],
      "name": "receiver",
      "outputs": [
        {
          "internalType": "address payable",
          "name": "",
          "type": "address"
        }
      ],
      "stateMutability": "view",
      "type": "function",
      "constant": true
    },
    {
      "inputs": [],
      "name": "validator",
      "outputs": [
        {
          "internalType": "address",
          "name": "",
          "type": "address"
        }
      ],
      "stateMutability": "view",
      "type": "function",
      "constant": true
    },
    {
      "stateMutability": "payable",
      "type": "receive",
      "payable": true
    },
    {
      "inputs": [
        {
          "internalType": "address payable",
          "name": "_generator",
          "type": "address"
        },
        {
          "internalType": "uint256",
          "name": "_sequestrationTons",
          "type": "uint256"
        }
      ],
      "name": "voteToApprove",
      "outputs": [
        {
          "internalType": "string",
          "name": "",
          "type": "string"
        }
      ],
      "stateMutability": "nonpayable",
      "type": "function"
    }
  ],
  "bytecode": "0x60806040526040516107a93803806107a983398181016040528101906100259190610136565b5f73ffffffffffffffffffffffffffffffffffffffff168173ffffffffffffffffffffffffffffffffffffffff1603610093576040517f08c379a000000000000000000000000000000000000000000000000000000000815260040161008a906101bb565b60405180910390fd5b805f5f6101000a81548173ffffffffffffffffffffffffffffffffffffffff021916908373ffffffffffffffffffffffffffffffffffffffff160217905550506101d9565b5f5ffd5b5f73ffffffffffffffffffffffffffffffffffffffff82169050919050565b5f610105826100dc565b9050919050565b610115816100fb565b811461011f575f5ffd5b50565b5f815190506101308161010c565b92915050565b5f6020828403121561014b5761014a6100d8565b5b5f61015884828501610122565b91505092915050565b5f82825260208201905092915050565b7f56616c696461746f7220616464726573732063616e6e6f74206265207a65726f5f82015250565b5f6101a5602083610161565b91506101b082610171565b602082019050919050565b5f6020820190508181035f8301526101d281610199565b9050919050565b6105c3806101e65f395ff3fe60806040526004361061004d575f3560e01c80633a5381b5146100505780636884d0a61461007a5780639995261a146100a4578063dbfcec23146100ce578063f7260d3e1461010a5761004e565b5b005b34801561005b575f5ffd5b50610064610134565b604051610071919061030e565b60405180910390f35b348015610085575f5ffd5b5061008e610158565b60405161009b919061033f565b60405180910390f35b3480156100af575f5ffd5b506100b861015e565b6040516100c5919061033f565b60405180910390f35b3480156100d9575f5ffd5b506100f460048036038101906100ef91906103c1565b610164565b604051610101919061046f565b60405180910390f35b348015610115575f5ffd5b5061011e6102aa565b60405161012b919061049e565b60405180910390f35b5f5f9054906101000a900473ffffffffffffffffffffffffffffffffffffffff1681565b60035481565b60025481565b60608260015f6101000a81548173ffffffffffffffffffffffffffffffffffffffff021916908373ffffffffffffffffffffffffffffffffffffffff160217905550816002819055506002544710156101f2576040517f08c379a00000000000000000000000000000000000000000000000000000000081526004016101e990610501565b60405180910390fd5b60015f9054906101000a900473ffffffffffffffffffffffffffffffffffffffff1673ffffffffffffffffffffffffffffffffffffffff166108fc670de0b6b3a7640000600254610243919061054c565b90811502906040515f60405180830381858888f1935050505015801561026b573d5f5f3e3d5ffd5b506040518060400160405280601881526020017f5472616e73616374696f6e205375636365737366756c20210000000000000000815250905092915050565b60015f9054906101000a900473ffffffffffffffffffffffffffffffffffffffff1681565b5f73ffffffffffffffffffffffffffffffffffffffff82169050919050565b5f6102f8826102cf565b9050919050565b610308816102ee565b82525050565b5f6020820190506103215f8301846102ff565b92915050565b5f819050919050565b61033981610327565b82525050565b5f6020820190506103525f830184610330565b92915050565b5f5ffd5b5f610366826102cf565b9050919050565b6103768161035c565b8114610380575f5ffd5b50565b5f813590506103918161036d565b92915050565b6103a081610327565b81146103aa575f5ffd5b50565b5f813590506103bb81610397565b92915050565b5f5f604083850312156103d7576103d6610358565b5b5f6103e485828601610383565b92505060206103f5858286016103ad565b9150509250929050565b5f81519050919050565b5f82825260208201905092915050565b8281835e5f83830152505050565b5f601f19601f8301169050919050565b5f610441826103ff565b61044b8185610409565b935061045b818560208601610419565b61046481610427565b840191505092915050565b5f6020820190508181035f8301526104878184610437565b905092915050565b6104988161035c565b82525050565b5f6020820190506104b15f83018461048f565b92915050565b7f496e73756666696369656e7420636f6e74726163742062616c616e63650000005f82015250565b5f6104eb601d83610409565b91506104f6826104b7565b602082019050919050565b5f6020820190508181035f830152610518816104df565b9050919050565b7f4e487b71000000000000000000000000000000000000000000000000000000005f52601160045260245ffd5b5f61055682610327565b915061056183610327565b925082820261056f81610327565b915082820484148315176105865761058561051f565b5b509291505056fea2646970667358221220640809da0c6496962f26252cb0c682a5738aaaf4b7d3ef21d1dafdf90c84ea8164736f6c634300081d0033",
  "immutableReferences": {},
  "source": "// SPDX-License-Identifier: MIT\r\npragma solidity ^0.8.19;\r\n\r\ncontract MultiValidator {\r\n    address public validator; // Validator\r\n    address payable public receiver; // Generator    \r\n    uint256 public creditAmount; // Hold credits\r\n    uint256 public approvalCount; // Approvals\r\n\r\n    constructor(address _validator) payable {\r\n        require(_validator != address(0), \"Validator address cannot be zero\");\r\n        validator = _validator;\r\n    }\r\n\r\n    function voteToApprove(address payable _generator, uint256 _sequestrationTons) public returns(string memory){\r\n        receiver = _generator;\r\n        creditAmount = _sequestrationTons;\r\n        \r\n        // approvalCount++;\r\n\r\n        // if(approvalCount==1)\r\n        //     return \"1st Approval Done !\";\r\n\r\n        // if(approvalCount==2){\r\n            require(address(this).balance >= creditAmount, \"Insufficient contract balance\");\r\n            receiver.transfer(creditAmount * 1 ether); \r\n            return \"Transaction Successful !\";\r\n    //     }\r\n\r\n    //     return \"Something went wrong !\";\r\n    }\r\n    \r\n    receive() external payable {}\r\n    fallback() external payable {}\r\n}\r\n",
  "sourcePath": "D:\\carbon-credit-ecosystem\\contracts\\MultiValidator.sol",
  "compiler": {
    "name": "solc",
    "version": "0.8.29+commit.ab55807c.Emscripten.clang"
  },
  "schemaVersion": "3.4.16",
  "updatedAt": "2025-03-14T21:15:52.045Z",
  "networkType": "ethereum",
  "devdoc": {
    "kind": "dev",
    "methods": {},
    "version": 1
  },
  "userdoc": {
    "kind": "user",
    "methods": {},
    "version": 1
  }
}