{
  "contractName": "SendTokens",
  "abi": [
    {
      "inputs": [],
      "stateMutability": "nonpayable",
      "type": "constructor"
    },
    {
      "inputs": [
        {
          "internalType": "address",
          "name": "",
          "type": "address"
        }
      ],
      "name": "balances",
      "outputs": [
        {
          "internalType": "uint256",
          "name": "",
          "type": "uint256"
        }
      ],
      "stateMutability": "view",
      "type": "function"
    },
    {
      "inputs": [],
      "name": "owner",
      "outputs": [
        {
          "internalType": "address",
          "name": "",
          "type": "address"
        }
      ],
      "stateMutability": "view",
      "type": "function"
    },
    {
      "inputs": [
        {
          "internalType": "address",
          "name": "recipient",
          "type": "address"
        },
        {
          "internalType": "uint256",
          "name": "amount",
          "type": "uint256"
        }
      ],
      "name": "sendTokens",
      "outputs": [],
      "stateMutability": "nonpayable",
      "type": "function"
    },
    {
      "inputs": [
        {
          "internalType": "address",
          "name": "account",
          "type": "address"
        }
      ],
      "name": "getBalance",
      "outputs": [
        {
          "internalType": "uint256",
          "name": "",
          "type": "uint256"
        }
      ],
      "stateMutability": "view",
      "type": "function"
    }
  ],
  "bytecode": "0x6080604052348015600e575f5ffd5b50335f5f6101000a81548173ffffffffffffffffffffffffffffffffffffffff021916908373ffffffffffffffffffffffffffffffffffffffff160217905550620f424060015f5f5f9054906101000a900473ffffffffffffffffffffffffffffffffffffffff1673ffffffffffffffffffffffffffffffffffffffff1673ffffffffffffffffffffffffffffffffffffffff1681526020019081526020015f208190555061074e806100c05f395ff3fe608060405234801561000f575f5ffd5b506004361061004a575f3560e01c806305ab421d1461004e57806327e235e31461006a5780638da5cb5b1461009a578063f8b2cb4f146100b8575b5f5ffd5b6100686004803603810190610063919061045e565b6100e8565b005b610084600480360381019061007f919061049c565b61034e565b60405161009191906104d6565b60405180910390f35b6100a2610363565b6040516100af91906104fe565b60405180910390f35b6100d260048036038101906100cd919061049c565b610387565b6040516100df91906104d6565b60405180910390f35b5f5f9054906101000a900473ffffffffffffffffffffffffffffffffffffffff1673ffffffffffffffffffffffffffffffffffffffff163373ffffffffffffffffffffffffffffffffffffffff1614610176576040517f08c379a000000000000000000000000000000000000000000000000000000000815260040161016d90610597565b60405180910390fd5b5f73ffffffffffffffffffffffffffffffffffffffff168273ffffffffffffffffffffffffffffffffffffffff16036101e4576040517f08c379a00000000000000000000000000000000000000000000000000000000081526004016101db906105ff565b60405180910390fd5b8060015f5f5f9054906101000a900473ffffffffffffffffffffffffffffffffffffffff1673ffffffffffffffffffffffffffffffffffffffff1673ffffffffffffffffffffffffffffffffffffffff1681526020019081526020015f20541015610284576040517f08c379a000000000000000000000000000000000000000000000000000000000815260040161027b90610667565b60405180910390fd5b8060015f5f5f9054906101000a900473ffffffffffffffffffffffffffffffffffffffff1673ffffffffffffffffffffffffffffffffffffffff1673ffffffffffffffffffffffffffffffffffffffff1681526020019081526020015f205f8282546102f091906106b2565b925050819055508060015f8473ffffffffffffffffffffffffffffffffffffffff1673ffffffffffffffffffffffffffffffffffffffff1681526020019081526020015f205f82825461034391906106e5565b925050819055505050565b6001602052805f5260405f205f915090505481565b5f5f9054906101000a900473ffffffffffffffffffffffffffffffffffffffff1681565b5f60015f8373ffffffffffffffffffffffffffffffffffffffff1673ffffffffffffffffffffffffffffffffffffffff1681526020019081526020015f20549050919050565b5f5ffd5b5f73ffffffffffffffffffffffffffffffffffffffff82169050919050565b5f6103fa826103d1565b9050919050565b61040a816103f0565b8114610414575f5ffd5b50565b5f8135905061042581610401565b92915050565b5f819050919050565b61043d8161042b565b8114610447575f5ffd5b50565b5f8135905061045881610434565b92915050565b5f5f60408385031215610474576104736103cd565b5b5f61048185828601610417565b92505060206104928582860161044a565b9150509250929050565b5f602082840312156104b1576104b06103cd565b5b5f6104be84828501610417565b91505092915050565b6104d08161042b565b82525050565b5f6020820190506104e95f8301846104c7565b92915050565b6104f8816103f0565b82525050565b5f6020820190506105115f8301846104ef565b92915050565b5f82825260208201905092915050565b7f546869732066756e6374696f6e206973207265737472696374656420746f20745f8201527f6865206f776e6572000000000000000000000000000000000000000000000000602082015250565b5f610581602883610517565b915061058c82610527565b604082019050919050565b5f6020820190508181035f8301526105ae81610575565b9050919050565b7f496e76616c696420726563697069656e742061646472657373000000000000005f82015250565b5f6105e9601983610517565b91506105f4826105b5565b602082019050919050565b5f6020820190508181035f830152610616816105dd565b9050919050565b7f4e6f7420656e6f75676820746f6b656e732100000000000000000000000000005f82015250565b5f610651601283610517565b915061065c8261061d565b602082019050919050565b5f6020820190508181035f83015261067e81610645565b9050919050565b7f4e487b71000000000000000000000000000000000000000000000000000000005f52601160045260245ffd5b5f6106bc8261042b565b91506106c78361042b565b92508282039050818111156106df576106de610685565b5b92915050565b5f6106ef8261042b565b91506106fa8361042b565b925082820190508082111561071257610711610685565b5b9291505056fea264697066735822122005dacff7a33d7a0df34a52f997baba8fbb80783554bdf3804ae05c1a53a912e264736f6c634300081c0033",
  "immutableReferences": {},
  "source": "// SPDX-License-Identifier: MIT\r\npragma solidity ^0.8.0;\r\n\r\ncontract SendTokens {\r\n    address public owner;\r\n    mapping(address => uint256) public balances;\r\n\r\n    constructor() {\r\n        owner = msg.sender;\r\n        balances[owner] = 1000000; // Mint 1M tokens to the owner\r\n    }\r\n\r\n    modifier onlyOwner() {\r\n        require(msg.sender == owner, \"This function is restricted to the owner\");\r\n        _;\r\n    }\r\n\r\n    function sendTokens(address recipient, uint256 amount) public onlyOwner {\r\n        require(recipient != address(0), \"Invalid recipient address\");\r\n        require(balances[owner] >= amount, \"Not enough tokens!\");\r\n\r\n        balances[owner] -= amount;\r\n        balances[recipient] += amount;\r\n    }\r\n\r\n    function getBalance(address account) public view returns (uint256) {\r\n        return balances[account];\r\n    }\r\n}\r\n",
  "sourcePath": "D:\\carbon-credit-ecosystem\\contracts\\SendTokens.sol",
  "compiler": {
    "name": "solc",
    "version": "0.8.28+commit.7893614a.Emscripten.clang"
  },
  "schemaVersion": "3.4.16",
  "updatedAt": "2025-02-23T19:17:04.177Z",
  "devdoc": {
    "kind": "dev",
    "methods": {},
    "version": 1
  },
  "userdoc": {
    "kind": "user",
    "methods": {},
    "version": 1
  }
}